{
  "contracts/DAO_mint.sol": {
    "DAO_mint": {
      "abi": [
        {
          "inputs": [],
          "stateMutability": "nonpayable",
          "type": "constructor"
        },
        {
          "inputs": [],
          "name": "DAO_NFTS_addr",
          "outputs": [
            {
              "internalType": "address",
              "name": "",
              "type": "address"
            }
          ],
          "stateMutability": "view",
          "type": "function"
        },
        {
          "inputs": [],
          "name": "admin",
          "outputs": [
            {
              "internalType": "address",
              "name": "",
              "type": "address"
            }
          ],
          "stateMutability": "view",
          "type": "function"
        },
        {
          "inputs": [
            {
              "internalType": "address",
              "name": "_to",
              "type": "address"
            }
          ],
          "name": "changeDAOAddr",
          "outputs": [],
          "stateMutability": "nonpayable",
          "type": "function"
        },
        {
          "inputs": [
            {
              "internalType": "uint256[]",
              "name": "_ids",
              "type": "uint256[]"
            },
            {
              "internalType": "uint256[]",
              "name": "_amounts",
              "type": "uint256[]"
            },
            {
              "internalType": "bytes",
              "name": "_data",
              "type": "bytes"
            }
          ],
          "name": "getNFTs",
          "outputs": [],
          "stateMutability": "nonpayable",
          "type": "function"
        },
        {
          "inputs": [
            {
              "internalType": "address",
              "name": "",
              "type": "address"
            }
          ],
          "name": "max_NFT",
          "outputs": [
            {
              "internalType": "uint256",
              "name": "",
              "type": "uint256"
            }
          ],
          "stateMutability": "view",
          "type": "function"
        },
        {
          "inputs": [],
          "name": "max_amount",
          "outputs": [
            {
              "internalType": "uint256",
              "name": "",
              "type": "uint256"
            }
          ],
          "stateMutability": "view",
          "type": "function"
        },
        {
          "inputs": [],
          "name": "max_id",
          "outputs": [
            {
              "internalType": "uint256",
              "name": "",
              "type": "uint256"
            }
          ],
          "stateMutability": "view",
          "type": "function"
        }
      ],
      "evm": {
        "bytecode": {
          "linkReferences": {},
          "object": "6080604052600a600155600460025534801561001a57600080fd5b50600480546001600160a01b031916331790556106718061003c6000396000f3fe608060405234801561001057600080fd5b506004361061007d5760003560e01c80639e15df901161005b5780639e15df90146100bc578063c32e352f146100dc578063f31c020e146100ef578063f851a4401461011a57600080fd5b80630c6d784f146100825780631a34fe811461009e5780633603444b146100a7575b600080fd5b61008b60025481565b6040519081526020015b60405180910390f35b61008b60015481565b6100ba6100b53660046103c2565b61012d565b005b61008b6100ca3660046103c2565b60036020526000908152604090205481565b6100ba6100ea3660046103f2565b610179565b600054610102906001600160a01b031681565b6040516001600160a01b039091168152602001610095565b600454610102906001600160a01b031681565b6004546001600160a01b0316331461014457600080fd5b6001600160a01b03811661015757600080fd5b600080546001600160a01b0319166001600160a01b0392909216919091179055565b81518351146101c25760405162461bcd60e51b815260206004820152601060248201526f0dcdee840cae2eac2d840d8cadccee8d60831b60448201526064015b60405180910390fd5b6005825111156102095760405162461bcd60e51b81526020600482015260126024820152711b585e081a59081b9d5b58995c881a5cc80d60721b60448201526064016101b9565b6000805b83518160ff16101561028057838160ff168151811061022e5761022e61060f565b60200260200101518261024191906105c1565b9150600254858260ff168151811061025b5761025b61060f565b6020026020010151111561026e57600080fd5b80610278816105d9565b91505061020d565b5033600090815260036020526040902054600a9061029e90836105c1565b11156102a957600080fd5b600054604051630fbfeffd60e11b81526001600160a01b0390911690631f7fdffa906102df903390889088908890600401610507565b600060405180830381600087803b1580156102f957600080fd5b505af115801561030d573d6000803e3d6000fd5b505033600090815260036020526040812080548594509092506103319084906105c1565b909155505050505050565b600082601f83011261034d57600080fd5b8135602067ffffffffffffffff82111561036957610369610625565b8160051b610378828201610590565b83815282810190868401838801850189101561039357600080fd5b600093505b858410156103b6578035835260019390930192918401918401610398565b50979650505050505050565b6000602082840312156103d457600080fd5b81356001600160a01b03811681146103eb57600080fd5b9392505050565b60008060006060848603121561040757600080fd5b833567ffffffffffffffff8082111561041f57600080fd5b61042b8783880161033c565b945060209150818601358181111561044257600080fd5b61044e8882890161033c565b94505060408601358181111561046357600080fd5b8601601f8101881361047457600080fd5b80358281111561048657610486610625565b610498601f8201601f19168501610590565b925080835288848284010111156104ae57600080fd5b80848301858501376000848285010152505080925050509250925092565b600081518084526020808501945080840160005b838110156104fc578151875295820195908201906001016104e0565b509495945050505050565b6001600160a01b03851681526080602080830182905260009161052c908401876104cc565b838103604085015261053e81876104cc565b90508381036060850152845180825260005b8181101561056b578681018401518382018501528301610550565b8181111561057c5760008483850101525b50601f01601f191601019695505050505050565b604051601f8201601f1916810167ffffffffffffffff811182821017156105b9576105b9610625565b604052919050565b600082198211156105d4576105d46105f9565b500190565b600060ff821660ff8114156105f0576105f06105f9565b60010192915050565b634e487b7160e01b600052601160045260246000fd5b634e487b7160e01b600052603260045260246000fd5b634e487b7160e01b600052604160045260246000fdfea2646970667358221220879d0b445fb9f9b25bf32a0537de4bed222561f0c9320626ff05ecca7b80fb0664736f6c63430008070033",
          "opcodes": "PUSH1 0x80 PUSH1 0x40 MSTORE PUSH1 0xA PUSH1 0x1 SSTORE PUSH1 0x4 PUSH1 0x2 SSTORE CALLVALUE DUP1 ISZERO PUSH2 0x1A JUMPI PUSH1 0x0 DUP1 REVERT JUMPDEST POP PUSH1 0x4 DUP1 SLOAD PUSH1 0x1 PUSH1 0x1 PUSH1 0xA0 SHL SUB NOT AND CALLER OR SWAP1 SSTORE PUSH2 0x671 DUP1 PUSH2 0x3C PUSH1 0x0 CODECOPY PUSH1 0x0 RETURN INVALID PUSH1 0x80 PUSH1 0x40 MSTORE CALLVALUE DUP1 ISZERO PUSH2 0x10 JUMPI PUSH1 0x0 DUP1 REVERT JUMPDEST POP PUSH1 0x4 CALLDATASIZE LT PUSH2 0x7D JUMPI PUSH1 0x0 CALLDATALOAD PUSH1 0xE0 SHR DUP1 PUSH4 0x9E15DF90 GT PUSH2 0x5B JUMPI DUP1 PUSH4 0x9E15DF90 EQ PUSH2 0xBC JUMPI DUP1 PUSH4 0xC32E352F EQ PUSH2 0xDC JUMPI DUP1 PUSH4 0xF31C020E EQ PUSH2 0xEF JUMPI DUP1 PUSH4 0xF851A440 EQ PUSH2 0x11A JUMPI PUSH1 0x0 DUP1 REVERT JUMPDEST DUP1 PUSH4 0xC6D784F EQ PUSH2 0x82 JUMPI DUP1 PUSH4 0x1A34FE81 EQ PUSH2 0x9E JUMPI DUP1 PUSH4 0x3603444B EQ PUSH2 0xA7 JUMPI JUMPDEST PUSH1 0x0 DUP1 REVERT JUMPDEST PUSH2 0x8B PUSH1 0x2 SLOAD DUP2 JUMP JUMPDEST PUSH1 0x40 MLOAD SWAP1 DUP2 MSTORE PUSH1 0x20 ADD JUMPDEST PUSH1 0x40 MLOAD DUP1 SWAP2 SUB SWAP1 RETURN JUMPDEST PUSH2 0x8B PUSH1 0x1 SLOAD DUP2 JUMP JUMPDEST PUSH2 0xBA PUSH2 0xB5 CALLDATASIZE PUSH1 0x4 PUSH2 0x3C2 JUMP JUMPDEST PUSH2 0x12D JUMP JUMPDEST STOP JUMPDEST PUSH2 0x8B PUSH2 0xCA CALLDATASIZE PUSH1 0x4 PUSH2 0x3C2 JUMP JUMPDEST PUSH1 0x3 PUSH1 0x20 MSTORE PUSH1 0x0 SWAP1 DUP2 MSTORE PUSH1 0x40 SWAP1 KECCAK256 SLOAD DUP2 JUMP JUMPDEST PUSH2 0xBA PUSH2 0xEA CALLDATASIZE PUSH1 0x4 PUSH2 0x3F2 JUMP JUMPDEST PUSH2 0x179 JUMP JUMPDEST PUSH1 0x0 SLOAD PUSH2 0x102 SWAP1 PUSH1 0x1 PUSH1 0x1 PUSH1 0xA0 SHL SUB AND DUP2 JUMP JUMPDEST PUSH1 0x40 MLOAD PUSH1 0x1 PUSH1 0x1 PUSH1 0xA0 SHL SUB SWAP1 SWAP2 AND DUP2 MSTORE PUSH1 0x20 ADD PUSH2 0x95 JUMP JUMPDEST PUSH1 0x4 SLOAD PUSH2 0x102 SWAP1 PUSH1 0x1 PUSH1 0x1 PUSH1 0xA0 SHL SUB AND DUP2 JUMP JUMPDEST PUSH1 0x4 SLOAD PUSH1 0x1 PUSH1 0x1 PUSH1 0xA0 SHL SUB AND CALLER EQ PUSH2 0x144 JUMPI PUSH1 0x0 DUP1 REVERT JUMPDEST PUSH1 0x1 PUSH1 0x1 PUSH1 0xA0 SHL SUB DUP2 AND PUSH2 0x157 JUMPI PUSH1 0x0 DUP1 REVERT JUMPDEST PUSH1 0x0 DUP1 SLOAD PUSH1 0x1 PUSH1 0x1 PUSH1 0xA0 SHL SUB NOT AND PUSH1 0x1 PUSH1 0x1 PUSH1 0xA0 SHL SUB SWAP3 SWAP1 SWAP3 AND SWAP2 SWAP1 SWAP2 OR SWAP1 SSTORE JUMP JUMPDEST DUP2 MLOAD DUP4 MLOAD EQ PUSH2 0x1C2 JUMPI PUSH1 0x40 MLOAD PUSH3 0x461BCD PUSH1 0xE5 SHL DUP2 MSTORE PUSH1 0x20 PUSH1 0x4 DUP3 ADD MSTORE PUSH1 0x10 PUSH1 0x24 DUP3 ADD MSTORE PUSH16 0xDCDEE840CAE2EAC2D840D8CADCCEE8D PUSH1 0x83 SHL PUSH1 0x44 DUP3 ADD MSTORE PUSH1 0x64 ADD JUMPDEST PUSH1 0x40 MLOAD DUP1 SWAP2 SUB SWAP1 REVERT JUMPDEST PUSH1 0x5 DUP3 MLOAD GT ISZERO PUSH2 0x209 JUMPI PUSH1 0x40 MLOAD PUSH3 0x461BCD PUSH1 0xE5 SHL DUP2 MSTORE PUSH1 0x20 PUSH1 0x4 DUP3 ADD MSTORE PUSH1 0x12 PUSH1 0x24 DUP3 ADD MSTORE PUSH18 0x1B585E081A59081B9D5B58995C881A5CC80D PUSH1 0x72 SHL PUSH1 0x44 DUP3 ADD MSTORE PUSH1 0x64 ADD PUSH2 0x1B9 JUMP JUMPDEST PUSH1 0x0 DUP1 JUMPDEST DUP4 MLOAD DUP2 PUSH1 0xFF AND LT ISZERO PUSH2 0x280 JUMPI DUP4 DUP2 PUSH1 0xFF AND DUP2 MLOAD DUP2 LT PUSH2 0x22E JUMPI PUSH2 0x22E PUSH2 0x60F JUMP JUMPDEST PUSH1 0x20 MUL PUSH1 0x20 ADD ADD MLOAD DUP3 PUSH2 0x241 SWAP2 SWAP1 PUSH2 0x5C1 JUMP JUMPDEST SWAP2 POP PUSH1 0x2 SLOAD DUP6 DUP3 PUSH1 0xFF AND DUP2 MLOAD DUP2 LT PUSH2 0x25B JUMPI PUSH2 0x25B PUSH2 0x60F JUMP JUMPDEST PUSH1 0x20 MUL PUSH1 0x20 ADD ADD MLOAD GT ISZERO PUSH2 0x26E JUMPI PUSH1 0x0 DUP1 REVERT JUMPDEST DUP1 PUSH2 0x278 DUP2 PUSH2 0x5D9 JUMP JUMPDEST SWAP2 POP POP PUSH2 0x20D JUMP JUMPDEST POP CALLER PUSH1 0x0 SWAP1 DUP2 MSTORE PUSH1 0x3 PUSH1 0x20 MSTORE PUSH1 0x40 SWAP1 KECCAK256 SLOAD PUSH1 0xA SWAP1 PUSH2 0x29E SWAP1 DUP4 PUSH2 0x5C1 JUMP JUMPDEST GT ISZERO PUSH2 0x2A9 JUMPI PUSH1 0x0 DUP1 REVERT JUMPDEST PUSH1 0x0 SLOAD PUSH1 0x40 MLOAD PUSH4 0xFBFEFFD PUSH1 0xE1 SHL DUP2 MSTORE PUSH1 0x1 PUSH1 0x1 PUSH1 0xA0 SHL SUB SWAP1 SWAP2 AND SWAP1 PUSH4 0x1F7FDFFA SWAP1 PUSH2 0x2DF SWAP1 CALLER SWAP1 DUP9 SWAP1 DUP9 SWAP1 DUP9 SWAP1 PUSH1 0x4 ADD PUSH2 0x507 JUMP JUMPDEST PUSH1 0x0 PUSH1 0x40 MLOAD DUP1 DUP4 SUB DUP2 PUSH1 0x0 DUP8 DUP1 EXTCODESIZE ISZERO DUP1 ISZERO PUSH2 0x2F9 JUMPI PUSH1 0x0 DUP1 REVERT JUMPDEST POP GAS CALL ISZERO DUP1 ISZERO PUSH2 0x30D JUMPI RETURNDATASIZE PUSH1 0x0 DUP1 RETURNDATACOPY RETURNDATASIZE PUSH1 0x0 REVERT JUMPDEST POP POP CALLER PUSH1 0x0 SWAP1 DUP2 MSTORE PUSH1 0x3 PUSH1 0x20 MSTORE PUSH1 0x40 DUP2 KECCAK256 DUP1 SLOAD DUP6 SWAP5 POP SWAP1 SWAP3 POP PUSH2 0x331 SWAP1 DUP5 SWAP1 PUSH2 0x5C1 JUMP JUMPDEST SWAP1 SWAP2 SSTORE POP POP POP POP POP POP JUMP JUMPDEST PUSH1 0x0 DUP3 PUSH1 0x1F DUP4 ADD SLT PUSH2 0x34D JUMPI PUSH1 0x0 DUP1 REVERT JUMPDEST DUP2 CALLDATALOAD PUSH1 0x20 PUSH8 0xFFFFFFFFFFFFFFFF DUP3 GT ISZERO PUSH2 0x369 JUMPI PUSH2 0x369 PUSH2 0x625 JUMP JUMPDEST DUP2 PUSH1 0x5 SHL PUSH2 0x378 DUP3 DUP3 ADD PUSH2 0x590 JUMP JUMPDEST DUP4 DUP2 MSTORE DUP3 DUP2 ADD SWAP1 DUP7 DUP5 ADD DUP4 DUP9 ADD DUP6 ADD DUP10 LT ISZERO PUSH2 0x393 JUMPI PUSH1 0x0 DUP1 REVERT JUMPDEST PUSH1 0x0 SWAP4 POP JUMPDEST DUP6 DUP5 LT ISZERO PUSH2 0x3B6 JUMPI DUP1 CALLDATALOAD DUP4 MSTORE PUSH1 0x1 SWAP4 SWAP1 SWAP4 ADD SWAP3 SWAP2 DUP5 ADD SWAP2 DUP5 ADD PUSH2 0x398 JUMP JUMPDEST POP SWAP8 SWAP7 POP POP POP POP POP POP POP JUMP JUMPDEST PUSH1 0x0 PUSH1 0x20 DUP3 DUP5 SUB SLT ISZERO PUSH2 0x3D4 JUMPI PUSH1 0x0 DUP1 REVERT JUMPDEST DUP2 CALLDATALOAD PUSH1 0x1 PUSH1 0x1 PUSH1 0xA0 SHL SUB DUP2 AND DUP2 EQ PUSH2 0x3EB JUMPI PUSH1 0x0 DUP1 REVERT JUMPDEST SWAP4 SWAP3 POP POP POP JUMP JUMPDEST PUSH1 0x0 DUP1 PUSH1 0x0 PUSH1 0x60 DUP5 DUP7 SUB SLT ISZERO PUSH2 0x407 JUMPI PUSH1 0x0 DUP1 REVERT JUMPDEST DUP4 CALLDATALOAD PUSH8 0xFFFFFFFFFFFFFFFF DUP1 DUP3 GT ISZERO PUSH2 0x41F JUMPI PUSH1 0x0 DUP1 REVERT JUMPDEST PUSH2 0x42B DUP8 DUP4 DUP9 ADD PUSH2 0x33C JUMP JUMPDEST SWAP5 POP PUSH1 0x20 SWAP2 POP DUP2 DUP7 ADD CALLDATALOAD DUP2 DUP2 GT ISZERO PUSH2 0x442 JUMPI PUSH1 0x0 DUP1 REVERT JUMPDEST PUSH2 0x44E DUP9 DUP3 DUP10 ADD PUSH2 0x33C JUMP JUMPDEST SWAP5 POP POP PUSH1 0x40 DUP7 ADD CALLDATALOAD DUP2 DUP2 GT ISZERO PUSH2 0x463 JUMPI PUSH1 0x0 DUP1 REVERT JUMPDEST DUP7 ADD PUSH1 0x1F DUP2 ADD DUP9 SGT PUSH2 0x474 JUMPI PUSH1 0x0 DUP1 REVERT JUMPDEST DUP1 CALLDATALOAD DUP3 DUP2 GT ISZERO PUSH2 0x486 JUMPI PUSH2 0x486 PUSH2 0x625 JUMP JUMPDEST PUSH2 0x498 PUSH1 0x1F DUP3 ADD PUSH1 0x1F NOT AND DUP6 ADD PUSH2 0x590 JUMP JUMPDEST SWAP3 POP DUP1 DUP4 MSTORE DUP9 DUP5 DUP3 DUP5 ADD ADD GT ISZERO PUSH2 0x4AE JUMPI PUSH1 0x0 DUP1 REVERT JUMPDEST DUP1 DUP5 DUP4 ADD DUP6 DUP6 ADD CALLDATACOPY PUSH1 0x0 DUP5 DUP3 DUP6 ADD ADD MSTORE POP POP DUP1 SWAP3 POP POP POP SWAP3 POP SWAP3 POP SWAP3 JUMP JUMPDEST PUSH1 0x0 DUP2 MLOAD DUP1 DUP5 MSTORE PUSH1 0x20 DUP1 DUP6 ADD SWAP5 POP DUP1 DUP5 ADD PUSH1 0x0 JUMPDEST DUP4 DUP2 LT ISZERO PUSH2 0x4FC JUMPI DUP2 MLOAD DUP8 MSTORE SWAP6 DUP3 ADD SWAP6 SWAP1 DUP3 ADD SWAP1 PUSH1 0x1 ADD PUSH2 0x4E0 JUMP JUMPDEST POP SWAP5 SWAP6 SWAP5 POP POP POP POP POP JUMP JUMPDEST PUSH1 0x1 PUSH1 0x1 PUSH1 0xA0 SHL SUB DUP6 AND DUP2 MSTORE PUSH1 0x80 PUSH1 0x20 DUP1 DUP4 ADD DUP3 SWAP1 MSTORE PUSH1 0x0 SWAP2 PUSH2 0x52C SWAP1 DUP5 ADD DUP8 PUSH2 0x4CC JUMP JUMPDEST DUP4 DUP2 SUB PUSH1 0x40 DUP6 ADD MSTORE PUSH2 0x53E DUP2 DUP8 PUSH2 0x4CC JUMP JUMPDEST SWAP1 POP DUP4 DUP2 SUB PUSH1 0x60 DUP6 ADD MSTORE DUP5 MLOAD DUP1 DUP3 MSTORE PUSH1 0x0 JUMPDEST DUP2 DUP2 LT ISZERO PUSH2 0x56B JUMPI DUP7 DUP2 ADD DUP5 ADD MLOAD DUP4 DUP3 ADD DUP6 ADD MSTORE DUP4 ADD PUSH2 0x550 JUMP JUMPDEST DUP2 DUP2 GT ISZERO PUSH2 0x57C JUMPI PUSH1 0x0 DUP5 DUP4 DUP6 ADD ADD MSTORE JUMPDEST POP PUSH1 0x1F ADD PUSH1 0x1F NOT AND ADD ADD SWAP7 SWAP6 POP POP POP POP POP POP JUMP JUMPDEST PUSH1 0x40 MLOAD PUSH1 0x1F DUP3 ADD PUSH1 0x1F NOT AND DUP2 ADD PUSH8 0xFFFFFFFFFFFFFFFF DUP2 GT DUP3 DUP3 LT OR ISZERO PUSH2 0x5B9 JUMPI PUSH2 0x5B9 PUSH2 0x625 JUMP JUMPDEST PUSH1 0x40 MSTORE SWAP2 SWAP1 POP JUMP JUMPDEST PUSH1 0x0 DUP3 NOT DUP3 GT ISZERO PUSH2 0x5D4 JUMPI PUSH2 0x5D4 PUSH2 0x5F9 JUMP JUMPDEST POP ADD SWAP1 JUMP JUMPDEST PUSH1 0x0 PUSH1 0xFF DUP3 AND PUSH1 0xFF DUP2 EQ ISZERO PUSH2 0x5F0 JUMPI PUSH2 0x5F0 PUSH2 0x5F9 JUMP JUMPDEST PUSH1 0x1 ADD SWAP3 SWAP2 POP POP JUMP JUMPDEST PUSH4 0x4E487B71 PUSH1 0xE0 SHL PUSH1 0x0 MSTORE PUSH1 0x11 PUSH1 0x4 MSTORE PUSH1 0x24 PUSH1 0x0 REVERT JUMPDEST PUSH4 0x4E487B71 PUSH1 0xE0 SHL PUSH1 0x0 MSTORE PUSH1 0x32 PUSH1 0x4 MSTORE PUSH1 0x24 PUSH1 0x0 REVERT JUMPDEST PUSH4 0x4E487B71 PUSH1 0xE0 SHL PUSH1 0x0 MSTORE PUSH1 0x41 PUSH1 0x4 MSTORE PUSH1 0x24 PUSH1 0x0 REVERT INVALID LOG2 PUSH5 0x6970667358 0x22 SLT KECCAK256 DUP8 SWAP14 SIGNEXTEND DIFFICULTY 0x5F 0xB9 0xF9 0xB2 JUMPDEST RETURN 0x2A SDIV CALLDATACOPY 0xDE 0x4B 0xED 0x22 0x25 PUSH2 0xF0C9 ORIGIN MOD 0x26 SELFDESTRUCT SDIV 0xEC 0xCA PUSH28 0x80FB0664736F6C634300080700330000000000000000000000000000 "
        },
        "methodIdentifiers": {
          "DAO_NFTS_addr()": "f31c020e",
          "admin()": "f851a440",
          "changeDAOAddr(address)": "3603444b",
          "getNFTs(uint256[],uint256[],bytes)": "c32e352f",
          "max_NFT(address)": "9e15df90",
          "max_amount()": "1a34fe81",
          "max_id()": "0c6d784f"
        }
      }
    }
  }
}