{
  "_format": "hh-sol-artifact-1",
  "contractName": "Magic_attack",
  "sourceName": "contracts/magic_attack.sol",
  "abi": [
    {
      "inputs": [],
      "stateMutability": "nonpayable",
      "type": "constructor"
    },
    {
      "anonymous": false,
      "inputs": [
        {
          "indexed": true,
          "internalType": "bytes32",
          "name": "role",
          "type": "bytes32"
        },
        {
          "indexed": true,
          "internalType": "bytes32",
          "name": "previousAdminRole",
          "type": "bytes32"
        },
        {
          "indexed": true,
          "internalType": "bytes32",
          "name": "newAdminRole",
          "type": "bytes32"
        }
      ],
      "name": "RoleAdminChanged",
      "type": "event"
    },
    {
      "anonymous": false,
      "inputs": [
        {
          "indexed": true,
          "internalType": "bytes32",
          "name": "role",
          "type": "bytes32"
        },
        {
          "indexed": true,
          "internalType": "address",
          "name": "account",
          "type": "address"
        },
        {
          "indexed": true,
          "internalType": "address",
          "name": "sender",
          "type": "address"
        }
      ],
      "name": "RoleGranted",
      "type": "event"
    },
    {
      "anonymous": false,
      "inputs": [
        {
          "indexed": true,
          "internalType": "bytes32",
          "name": "role",
          "type": "bytes32"
        },
        {
          "indexed": true,
          "internalType": "address",
          "name": "account",
          "type": "address"
        },
        {
          "indexed": true,
          "internalType": "address",
          "name": "sender",
          "type": "address"
        }
      ],
      "name": "RoleRevoked",
      "type": "event"
    },
    {
      "inputs": [],
      "name": "DEFAULT_ADMIN_ROLE",
      "outputs": [
        {
          "internalType": "bytes32",
          "name": "",
          "type": "bytes32"
        }
      ],
      "stateMutability": "view",
      "type": "function"
    },
    {
      "inputs": [],
      "name": "_map",
      "outputs": [
        {
          "internalType": "contract IALCX_map",
          "name": "",
          "type": "address"
        }
      ],
      "stateMutability": "view",
      "type": "function"
    },
    {
      "inputs": [],
      "name": "_mapNFTs",
      "outputs": [
        {
          "internalType": "contract IERC721PresetMinterPauserAutoId",
          "name": "",
          "type": "address"
        }
      ],
      "stateMutability": "view",
      "type": "function"
    },
    {
      "inputs": [
        {
          "internalType": "uint256",
          "name": "_x",
          "type": "uint256"
        },
        {
          "internalType": "uint256",
          "name": "_y",
          "type": "uint256"
        },
        {
          "internalType": "uint256",
          "name": "_amount",
          "type": "uint256"
        }
      ],
      "name": "decreaseLandsProtection",
      "outputs": [],
      "stateMutability": "nonpayable",
      "type": "function"
    },
    {
      "inputs": [
        {
          "internalType": "bytes32",
          "name": "role",
          "type": "bytes32"
        }
      ],
      "name": "getRoleAdmin",
      "outputs": [
        {
          "internalType": "bytes32",
          "name": "",
          "type": "bytes32"
        }
      ],
      "stateMutability": "view",
      "type": "function"
    },
    {
      "inputs": [
        {
          "internalType": "bytes32",
          "name": "role",
          "type": "bytes32"
        },
        {
          "internalType": "address",
          "name": "account",
          "type": "address"
        }
      ],
      "name": "grantRole",
      "outputs": [],
      "stateMutability": "nonpayable",
      "type": "function"
    },
    {
      "inputs": [
        {
          "internalType": "bytes32",
          "name": "role",
          "type": "bytes32"
        },
        {
          "internalType": "address",
          "name": "account",
          "type": "address"
        }
      ],
      "name": "hasRole",
      "outputs": [
        {
          "internalType": "bool",
          "name": "",
          "type": "bool"
        }
      ],
      "stateMutability": "view",
      "type": "function"
    },
    {
      "inputs": [
        {
          "internalType": "uint256",
          "name": "_x",
          "type": "uint256"
        },
        {
          "internalType": "uint256",
          "name": "_y",
          "type": "uint256"
        },
        {
          "internalType": "uint256",
          "name": "_amount",
          "type": "uint256"
        }
      ],
      "name": "increaseLandsProtection",
      "outputs": [],
      "stateMutability": "nonpayable",
      "type": "function"
    },
    {
      "inputs": [
        {
          "internalType": "uint256",
          "name": "_attackX",
          "type": "uint256"
        },
        {
          "internalType": "uint256",
          "name": "_attackY",
          "type": "uint256"
        },
        {
          "internalType": "uint256",
          "name": "_fromX",
          "type": "uint256"
        },
        {
          "internalType": "uint256",
          "name": "_fromY",
          "type": "uint256"
        },
        {
          "internalType": "uint256",
          "name": "_amount",
          "type": "uint256"
        }
      ],
      "name": "magicAttack",
      "outputs": [],
      "stateMutability": "nonpayable",
      "type": "function"
    },
    {
      "inputs": [
        {
          "internalType": "address",
          "name": "",
          "type": "address"
        },
        {
          "internalType": "address",
          "name": "",
          "type": "address"
        },
        {
          "internalType": "uint256[]",
          "name": "",
          "type": "uint256[]"
        },
        {
          "internalType": "uint256[]",
          "name": "",
          "type": "uint256[]"
        },
        {
          "internalType": "bytes",
          "name": "",
          "type": "bytes"
        }
      ],
      "name": "onERC1155BatchReceived",
      "outputs": [
        {
          "internalType": "bytes4",
          "name": "",
          "type": "bytes4"
        }
      ],
      "stateMutability": "nonpayable",
      "type": "function"
    },
    {
      "inputs": [
        {
          "internalType": "address",
          "name": "",
          "type": "address"
        },
        {
          "internalType": "address",
          "name": "",
          "type": "address"
        },
        {
          "internalType": "uint256",
          "name": "",
          "type": "uint256"
        },
        {
          "internalType": "uint256",
          "name": "",
          "type": "uint256"
        },
        {
          "internalType": "bytes",
          "name": "",
          "type": "bytes"
        }
      ],
      "name": "onERC1155Received",
      "outputs": [
        {
          "internalType": "bytes4",
          "name": "",
          "type": "bytes4"
        }
      ],
      "stateMutability": "nonpayable",
      "type": "function"
    },
    {
      "inputs": [
        {
          "internalType": "bytes32",
          "name": "role",
          "type": "bytes32"
        },
        {
          "internalType": "address",
          "name": "account",
          "type": "address"
        }
      ],
      "name": "renounceRole",
      "outputs": [],
      "stateMutability": "nonpayable",
      "type": "function"
    },
    {
      "inputs": [
        {
          "internalType": "bytes32",
          "name": "role",
          "type": "bytes32"
        },
        {
          "internalType": "address",
          "name": "account",
          "type": "address"
        }
      ],
      "name": "revokeRole",
      "outputs": [],
      "stateMutability": "nonpayable",
      "type": "function"
    },
    {
      "inputs": [
        {
          "internalType": "bytes4",
          "name": "interfaceId",
          "type": "bytes4"
        }
      ],
      "name": "supportsInterface",
      "outputs": [
        {
          "internalType": "bool",
          "name": "",
          "type": "bool"
        }
      ],
      "stateMutability": "view",
      "type": "function"
    },
    {
      "inputs": [
        {
          "internalType": "address",
          "name": "_mapAddr",
          "type": "address"
        },
        {
          "internalType": "address",
          "name": "_mapNFTsAddr",
          "type": "address"
        }
      ],
      "name": "updateAddresses",
      "outputs": [],
      "stateMutability": "nonpayable",
      "type": "function"
    }
  ],
  "bytecode": "0x608060405234801561001057600080fd5b5061001c600033610021565b6100cd565b61002b828261002f565b5050565b6000828152602081815260408083206001600160a01b038516845290915290205460ff1661002b576000828152602081815260408083206001600160a01b03851684529091529020805460ff191660011790556100893390565b6001600160a01b0316816001600160a01b0316837f2f8788117e7eff1d82e926ec794901d17c78024a50270940304540a733656f0d60405160405180910390a45050565b611c4980620000dd6000396000f3fe608060405234801561001057600080fd5b50600436106100f55760003560e01c806391d1485411610097578063bc197c8111610066578063bc197c811461020d578063c1d1103714610245578063d547741f14610258578063f23a6e611461026b57600080fd5b806391d14854146101cc578063983bb849146101df578063a217fddf146101f2578063a26b6325146101fa57600080fd5b806336568abe116100d357806336568abe146101685780636ba823101461017b57806378074e03146101a65780638ba74b96146101b957600080fd5b806301ffc9a7146100fa578063248a9ca3146101225780632f2ff15d14610153575b600080fd5b61010d610108366004611909565b61028a565b60405190151581526020015b60405180910390f35b6101456101303660046118cb565b60009081526020819052604090206001015490565b604051908152602001610119565b6101666101613660046118e4565b61029b565b005b6101666101763660046118e4565b6102c6565b60015461018e906001600160a01b031681565b6040516001600160a01b039091168152602001610119565b6101666101b43660046119c3565b610349565b60025461018e906001600160a01b031681565b61010d6101da3660046118e4565b610643565b6101666101ed3660046119c3565b61066c565b610145600081565b6101666102083660046119ef565b610a08565b61022c61021b366004611799565b63bc197c8160e01b95945050505050565b6040516001600160e01b03199091168152602001610119565b610166610253366004611760565b611273565b6101666102663660046118e4565b6112c8565b61022c610279366004611847565b63f23a6e6160e01b95945050505050565b6000610295826112ee565b92915050565b6000828152602081905260409020600101546102b78133611313565b6102c18383611377565b505050565b6001600160a01b038116331461033b5760405162461bcd60e51b815260206004820152602f60248201527f416363657373436f6e74726f6c3a2063616e206f6e6c792072656e6f756e636560448201526e103937b632b9903337b91039b2b63360891b60648201526084015b60405180910390fd5b61034582826113fb565b5050565b8061038a5760405162461bcd60e51b815260206004820152601160248201527063616e27742073656e642030204e46547360781b6044820152606401610332565b600254600154604051631521722560e31b8152600481018690526024810185905233926001600160a01b0390811692636352211e9291169063a90b91289060440160a06040518083038186803b1580156103e357600080fd5b505afa1580156103f7573d6000803e3d6000fd5b505050506040513d601f19601f8201168201806040525081019061041b9190611933565b602001516040518263ffffffff1660e01b815260040161043d91815260200190565b60206040518083038186803b15801561045557600080fd5b505afa158015610469573d6000803e3d6000fd5b505050506040513d601f19601f8201168201806040525081019061048d9190611743565b6001600160a01b0316146104e35760405162461bcd60e51b815260206004820152601b60248201527f6164647265737320646f65736e2774206f776e206163636f756e7400000000006044820152606401610332565b600154604051631521722560e31b815260048101859052602481018490526001600160a01b0390911690630d996b069033908390819063a90b91289060440160a06040518083038186803b15801561053a57600080fd5b505afa15801561054e573d6000803e3d6000fd5b505050506040513d601f19601f820116820180604052508101906105729190611933565b516040516001600160e01b031960e086901b168152610598939291908790600401611a9f565b600060405180830381600087803b1580156105b257600080fd5b505af11580156105c6573d6000803e3d6000fd5b50506001805460405163bef6002960e01b815260048101889052602481018790526044810192909252606482018590526001600160a01b0316925063bef6002991506084015b600060405180830381600087803b15801561062657600080fd5b505af115801561063a573d6000803e3d6000fd5b50505050505050565b6000918252602082815260408084206001600160a01b0393909316845291905290205460ff1690565b806106ad5760405162461bcd60e51b815260206004820152601160248201527063616e27742073656e642030204e46547360781b6044820152606401610332565b600254600154604051631521722560e31b8152600481018690526024810185905233926001600160a01b0390811692636352211e9291169063a90b91289060440160a06040518083038186803b15801561070657600080fd5b505afa15801561071a573d6000803e3d6000fd5b505050506040513d601f19601f8201168201806040525081019061073e9190611933565b602001516040518263ffffffff1660e01b815260040161076091815260200190565b60206040518083038186803b15801561077857600080fd5b505afa15801561078c573d6000803e3d6000fd5b505050506040513d601f19601f820116820180604052508101906107b09190611743565b6001600160a01b0316146108065760405162461bcd60e51b815260206004820152601b60248201527f6164647265737320646f65736e2774206f776e206163636f756e7400000000006044820152606401610332565b600154604051631521722560e31b8152600481018590526024810184905282916001600160a01b03169063a90b91289060440160a06040518083038186803b15801561085157600080fd5b505afa158015610865573d6000803e3d6000fd5b505050506040513d601f19601f820116820180604052508101906108899190611933565b6060015110156108db5760405162461bcd60e51b815260206004820152601760248201527f4e6f7420656e6f756768204e465473206f6e2074696c650000000000000000006044820152606401610332565b600154604051631521722560e31b815260048101859052602481018490526001600160a01b0390911690630d996b069082903390829063a90b91289060440160a06040518083038186803b15801561093257600080fd5b505afa158015610946573d6000803e3d6000fd5b505050506040513d601f19601f8201168201806040525081019061096a9190611933565b516040516001600160e01b031960e086901b168152610990939291908790600401611a9f565b600060405180830381600087803b1580156109aa57600080fd5b505af11580156109be573d6000803e3d6000fd5b505060015460405163bef6002960e01b8152600481018790526024810186905260006044820152606481018590526001600160a01b03909116925063bef60029915060840161060c565b8285141580610a175750818414155b610a5b5760405162461bcd60e51b815260206004820152601560248201527431b0b73a1030ba3a30b1b5903cb7bab91039b2b63360591b6044820152606401610332565b604051631576ae2560e31b81526004810186905260248101859052604481018490526064810183905273__$b8cfa4053e72f7932990c84045fee04783$__9063abb571289060840160206040518083038186803b158015610abb57600080fd5b505af4158015610acf573d6000803e3d6000fd5b505050506040513d601f19601f82011682018060405250810190610af391906119aa565b600114610b315760405162461bcd60e51b815260206004820152600c60248201526b546f6f20666172206177617960a01b6044820152606401610332565b60015460405163fdc1437760e01b8152600481018790526024810186905260448101859052606481018490526001600160a01b039091169063fdc143779060840160206040518083038186803b158015610b8a57600080fd5b505afa158015610b9e573d6000803e3d6000fd5b505050506040513d601f19601f82011682018060405250810190610bc291906118b0565b610c255760405162461bcd60e51b815260206004820152602e60248201527f43616e742064657374726f79207468617420617320697420776f756c6420736560448201526d070617261746520746865206d61760941b6064820152608401610332565b600154604051631521722560e31b815260048101879052602481018690526001600160a01b0390911690630d996b069033908390819063a90b91289060440160a06040518083038186803b158015610c7c57600080fd5b505afa158015610c90573d6000803e3d6000fd5b505050506040513d601f19601f82011682018060405250810190610cb49190611933565b516040516001600160e01b031960e086901b168152610cda939291908790600401611a9f565b600060405180830381600087803b158015610cf457600080fd5b505af1158015610d08573d6000803e3d6000fd5b5050600154604051631521722560e31b815260048101899052602481018890526001600160a01b03909116925063a90b9128915060440160a06040518083038186803b158015610d5757600080fd5b505afa158015610d6b573d6000803e3d6000fd5b505050506040513d601f19601f82011682018060405250810190610d8f9190611933565b60600151811015610f855760018054604051631521722560e31b815260048101889052602481018790526001600160a01b0390911691630d996b0691839190829063a90b91289060440160a06040518083038186803b158015610df157600080fd5b505afa158015610e05573d6000803e3d6000fd5b505050506040513d601f19601f82011682018060405250810190610e299190611933565b51600154604051631521722560e31b8152600481018c9052602481018b90526001600160a01b039091169063a90b91289060440160a06040518083038186803b158015610e7557600080fd5b505afa158015610e89573d6000803e3d6000fd5b505050506040513d601f19601f82011682018060405250810190610ead9190611933565b60600151610ebc906002611b53565b6040518563ffffffff1660e01b8152600401610edb9493929190611a9f565b600060405180830381600087803b158015610ef557600080fd5b505af1158015610f09573d6000803e3d6000fd5b505060015460405163bef6002960e01b8152600481018990526024810188905260006044820152606481018590526001600160a01b03909116925063bef600299150608401600060405180830381600087803b158015610f6857600080fd5b505af1158015610f7c573d6000803e3d6000fd5b5050505061126c565b600154604051631521722560e31b815260048101879052602481018690526001600160a01b039091169063bef600299087908790600090859063a90b91289060440160a06040518083038186803b158015610fdf57600080fd5b505afa158015610ff3573d6000803e3d6000fd5b505050506040513d601f19601f820116820180604052508101906110179190611933565b606001516040516001600160e01b031960e087901b16815260048101949094526024840192909252151560448301526064820152608401600060405180830381600087803b15801561106857600080fd5b505af115801561107c573d6000803e3d6000fd5b505060018054604051631521722560e31b8152600481018a9052602481018990526001600160a01b039091169350630d996b069250839190829063a90b91289060440160a06040518083038186803b1580156110d757600080fd5b505afa1580156110eb573d6000803e3d6000fd5b505050506040513d601f19601f8201168201806040525081019061110f9190611933565b5161111b866002611b53565b6040518563ffffffff1660e01b815260040161113a9493929190611a9f565b600060405180830381600087803b15801561115457600080fd5b505af1158015611168573d6000803e3d6000fd5b505060015460405163fdc1437760e01b8152600481018990526024810188905260448101879052606481018690526001600160a01b03909116925063fdc14377915060840160206040518083038186803b1580156111c557600080fd5b505afa1580156111d9573d6000803e3d6000fd5b505050506040513d601f19601f820116820180604052508101906111fd91906118b0565b61120657600080fd5b60015460405163e96a0d9560e01b815260048101879052602481018690526001600160a01b039091169063e96a0d9590604401600060405180830381600087803b15801561125357600080fd5b505af1158015611267573d6000803e3d6000fd5b505050505b5050505050565b61127e600033610643565b61128757600080fd5b6001600160a01b03821661129a57600080fd5b600180546001600160a01b039384166001600160a01b03199182161790915560028054929093169116179055565b6000828152602081905260409020600101546112e48133611313565b6102c183836113fb565b60006001600160e01b03198216630271189760e51b1480610295575061029582611460565b61131d8282610643565b61034557611335816001600160a01b03166014611495565b611340836020611495565b604051602001611351929190611a2a565b60408051601f198184030181529082905262461bcd60e51b825261033291600401611ad7565b6113818282610643565b610345576000828152602081815260408083206001600160a01b03851684529091529020805460ff191660011790556113b73390565b6001600160a01b0316816001600160a01b0316837f2f8788117e7eff1d82e926ec794901d17c78024a50270940304540a733656f0d60405160405180910390a45050565b6114058282610643565b15610345576000828152602081815260408083206001600160a01b0385168085529252808320805460ff1916905551339285917ff6391f5c32d9c69d2a47ea670b442974b53935d1edc7fd64eb21e047a839171b9190a45050565b60006001600160e01b03198216637965db0b60e01b148061029557506301ffc9a760e01b6001600160e01b0319831614610295565b606060006114a4836002611b53565b6114af906002611b3b565b67ffffffffffffffff8111156114c7576114c7611be5565b6040519080825280601f01601f1916602001820160405280156114f1576020820181803683370190505b509050600360fc1b8160008151811061150c5761150c611bcf565b60200101906001600160f81b031916908160001a905350600f60fb1b8160018151811061153b5761153b611bcf565b60200101906001600160f81b031916908160001a905350600061155f846002611b53565b61156a906001611b3b565b90505b60018111156115e2576f181899199a1a9b1b9c1cb0b131b232b360811b85600f166010811061159e5761159e611bcf565b1a60f81b8282815181106115b4576115b4611bcf565b60200101906001600160f81b031916908160001a90535060049490941c936115db81611ba2565b905061156d565b5083156116315760405162461bcd60e51b815260206004820181905260248201527f537472696e67733a20686578206c656e67746820696e73756666696369656e746044820152606401610332565b9392505050565b600082601f83011261164957600080fd5b8135602067ffffffffffffffff82111561166557611665611be5565b8160051b611674828201611b0a565b83815282810190868401838801850189101561168f57600080fd5b600093505b858410156116b2578035835260019390930192918401918401611694565b50979650505050505050565b805180151581146116ce57600080fd5b919050565b600082601f8301126116e457600080fd5b813567ffffffffffffffff8111156116fe576116fe611be5565b611711601f8201601f1916602001611b0a565b81815284602083860101111561172657600080fd5b816020850160208301376000918101602001919091529392505050565b60006020828403121561175557600080fd5b815161163181611bfb565b6000806040838503121561177357600080fd5b823561177e81611bfb565b9150602083013561178e81611bfb565b809150509250929050565b600080600080600060a086880312156117b157600080fd5b85356117bc81611bfb565b945060208601356117cc81611bfb565b9350604086013567ffffffffffffffff808211156117e957600080fd5b6117f589838a01611638565b9450606088013591508082111561180b57600080fd5b61181789838a01611638565b9350608088013591508082111561182d57600080fd5b5061183a888289016116d3565b9150509295509295909350565b600080600080600060a0868803121561185f57600080fd5b853561186a81611bfb565b9450602086013561187a81611bfb565b93506040860135925060608601359150608086013567ffffffffffffffff8111156118a457600080fd5b61183a888289016116d3565b6000602082840312156118c257600080fd5b611631826116be565b6000602082840312156118dd57600080fd5b5035919050565b600080604083850312156118f757600080fd5b82359150602083013561178e81611bfb565b60006020828403121561191b57600080fd5b81356001600160e01b03198116811461163157600080fd5b600060a0828403121561194557600080fd5b60405160a0810181811067ffffffffffffffff8211171561196857611968611be5565b80604052508251815260208301516020820152611987604084016116be565b604082015260608301516060820152608083015160808201528091505092915050565b6000602082840312156119bc57600080fd5b5051919050565b6000806000606084860312156119d857600080fd5b505081359360208301359350604090920135919050565b600080600080600060a08688031215611a0757600080fd5b505083359560208501359550604085013594606081013594506080013592509050565b7f416363657373436f6e74726f6c3a206163636f756e7420000000000000000000815260008351611a62816017850160208801611b72565b7001034b99036b4b9b9b4b733903937b6329607d1b6017918401918201528351611a93816028840160208801611b72565b01602801949350505050565b6001600160a01b0394851681529290931660208301526040820152606081019190915260a06080820181905260009082015260c00190565b6020815260008251806020840152611af6816040850160208701611b72565b601f01601f19169190910160400192915050565b604051601f8201601f1916810167ffffffffffffffff81118282101715611b3357611b33611be5565b604052919050565b60008219821115611b4e57611b4e611bb9565b500190565b6000816000190483118215151615611b6d57611b6d611bb9565b500290565b60005b83811015611b8d578181015183820152602001611b75565b83811115611b9c576000848401525b50505050565b600081611bb157611bb1611bb9565b506000190190565b634e487b7160e01b600052601160045260246000fd5b634e487b7160e01b600052603260045260246000fd5b634e487b7160e01b600052604160045260246000fd5b6001600160a01b0381168114611c1057600080fd5b5056fea2646970667358221220b324aab1a49359462310ee70eac10786171261abc2cce0719f1df8e2c3de69a864736f6c63430008070033",
  "linkReferences": {
    "contracts/Chebyshev_math.sol": {
      "Chebyshev_math": [
        {
          "length": 20,
          "start": 2915
        }
      ]
    }
  },
  "deployedLinkReferences": {
    "contracts/Chebyshev_math.sol": {
      "Chebyshev_math": [
        {
          "length": 20,
          "start": 2694
        }
      ]
    }
  }
}