{
  "_format": "hh-sol-artifact-1",
  "contractName": "DAO_mint",
  "sourceName": "contracts/DAO_mint.sol",
  "abi": [
    {
      "inputs": [],
      "stateMutability": "nonpayable",
      "type": "constructor"
    },
    {
      "inputs": [],
      "name": "DAO_NFTS_addr",
      "outputs": [
        {
          "internalType": "address",
          "name": "",
          "type": "address"
        }
      ],
      "stateMutability": "view",
      "type": "function"
    },
    {
      "inputs": [],
      "name": "admin",
      "outputs": [
        {
          "internalType": "address",
          "name": "",
          "type": "address"
        }
      ],
      "stateMutability": "view",
      "type": "function"
    },
    {
      "inputs": [
        {
          "internalType": "address",
          "name": "_to",
          "type": "address"
        }
      ],
      "name": "changeDAOAddr",
      "outputs": [],
      "stateMutability": "nonpayable",
      "type": "function"
    },
    {
      "inputs": [
        {
          "internalType": "uint256[]",
          "name": "_ids",
          "type": "uint256[]"
        },
        {
          "internalType": "uint256[]",
          "name": "_amounts",
          "type": "uint256[]"
        },
        {
          "internalType": "bytes",
          "name": "_data",
          "type": "bytes"
        }
      ],
      "name": "getNFTs",
      "outputs": [],
      "stateMutability": "nonpayable",
      "type": "function"
    },
    {
      "inputs": [
        {
          "internalType": "address",
          "name": "",
          "type": "address"
        }
      ],
      "name": "max_NFT",
      "outputs": [
        {
          "internalType": "uint256",
          "name": "",
          "type": "uint256"
        }
      ],
      "stateMutability": "view",
      "type": "function"
    },
    {
      "inputs": [],
      "name": "max_amount",
      "outputs": [
        {
          "internalType": "uint256",
          "name": "",
          "type": "uint256"
        }
      ],
      "stateMutability": "view",
      "type": "function"
    },
    {
      "inputs": [],
      "name": "max_id",
      "outputs": [
        {
          "internalType": "uint256",
          "name": "",
          "type": "uint256"
        }
      ],
      "stateMutability": "view",
      "type": "function"
    }
  ],
  "bytecode": "0x6080604052600a600155600460025534801561001a57600080fd5b50600480546001600160a01b031916331790556106718061003c6000396000f3fe608060405234801561001057600080fd5b506004361061007d5760003560e01c80639e15df901161005b5780639e15df90146100bc578063c32e352f146100dc578063f31c020e146100ef578063f851a4401461011a57600080fd5b80630c6d784f146100825780631a34fe811461009e5780633603444b146100a7575b600080fd5b61008b60025481565b6040519081526020015b60405180910390f35b61008b60015481565b6100ba6100b53660046103c2565b61012d565b005b61008b6100ca3660046103c2565b60036020526000908152604090205481565b6100ba6100ea3660046103f2565b610179565b600054610102906001600160a01b031681565b6040516001600160a01b039091168152602001610095565b600454610102906001600160a01b031681565b6004546001600160a01b0316331461014457600080fd5b6001600160a01b03811661015757600080fd5b600080546001600160a01b0319166001600160a01b0392909216919091179055565b81518351146101c25760405162461bcd60e51b815260206004820152601060248201526f0dcdee840cae2eac2d840d8cadccee8d60831b60448201526064015b60405180910390fd5b6005825111156102095760405162461bcd60e51b81526020600482015260126024820152711b585e081a59081b9d5b58995c881a5cc80d60721b60448201526064016101b9565b6000805b83518160ff16101561028057838160ff168151811061022e5761022e61060f565b60200260200101518261024191906105c1565b9150600254858260ff168151811061025b5761025b61060f565b6020026020010151111561026e57600080fd5b80610278816105d9565b91505061020d565b5033600090815260036020526040902054600a9061029e90836105c1565b11156102a957600080fd5b600054604051630fbfeffd60e11b81526001600160a01b0390911690631f7fdffa906102df903390889088908890600401610507565b600060405180830381600087803b1580156102f957600080fd5b505af115801561030d573d6000803e3d6000fd5b505033600090815260036020526040812080548594509092506103319084906105c1565b909155505050505050565b600082601f83011261034d57600080fd5b8135602067ffffffffffffffff82111561036957610369610625565b8160051b610378828201610590565b83815282810190868401838801850189101561039357600080fd5b600093505b858410156103b6578035835260019390930192918401918401610398565b50979650505050505050565b6000602082840312156103d457600080fd5b81356001600160a01b03811681146103eb57600080fd5b9392505050565b60008060006060848603121561040757600080fd5b833567ffffffffffffffff8082111561041f57600080fd5b61042b8783880161033c565b945060209150818601358181111561044257600080fd5b61044e8882890161033c565b94505060408601358181111561046357600080fd5b8601601f8101881361047457600080fd5b80358281111561048657610486610625565b610498601f8201601f19168501610590565b925080835288848284010111156104ae57600080fd5b80848301858501376000848285010152505080925050509250925092565b600081518084526020808501945080840160005b838110156104fc578151875295820195908201906001016104e0565b509495945050505050565b6001600160a01b03851681526080602080830182905260009161052c908401876104cc565b838103604085015261053e81876104cc565b90508381036060850152845180825260005b8181101561056b578681018401518382018501528301610550565b8181111561057c5760008483850101525b50601f01601f191601019695505050505050565b604051601f8201601f1916810167ffffffffffffffff811182821017156105b9576105b9610625565b604052919050565b600082198211156105d4576105d46105f9565b500190565b600060ff821660ff8114156105f0576105f06105f9565b60010192915050565b634e487b7160e01b600052601160045260246000fd5b634e487b7160e01b600052603260045260246000fd5b634e487b7160e01b600052604160045260246000fdfea2646970667358221220879d0b445fb9f9b25bf32a0537de4bed222561f0c9320626ff05ecca7b80fb0664736f6c63430008070033",
  "linkReferences": {},
  "deployedLinkReferences": {}
}