{
  "_format": "hh-sol-artifact-1",
  "contractName": "Chebyshev_math",
  "sourceName": "contracts/Chebyshev_math.sol",
  "abi": [
    {
      "inputs": [
        {
          "internalType": "uint256",
          "name": "x1",
          "type": "uint256"
        },
        {
          "internalType": "uint256",
          "name": "y1",
          "type": "uint256"
        },
        {
          "internalType": "uint256",
          "name": "x2",
          "type": "uint256"
        },
        {
          "internalType": "uint256",
          "name": "y2",
          "type": "uint256"
        }
      ],
      "name": "distance",
      "outputs": [
        {
          "internalType": "uint256",
          "name": "",
          "type": "uint256"
        }
      ],
      "stateMutability": "pure",
      "type": "function"
    }
  ],
  "bytecode": "0x61016061003a600b82828239805160001a60731461002d57634e487b7160e01b600052600060045260246000fd5b30600052607381538281f3fe73000000000000000000000000000000000000000030146080604052600436106100355760003560e01c8063abb571281461003a575b600080fd5b61004d6100483660046100d3565b61005f565b60405190815260200160405180910390f35b600061007d61006e8685610086565b6100788685610086565b6100ad565b95945050505050565b600061009283836100c4565b61009c84846100ad565b6100a69190610105565b9392505050565b6000818310156100bd57816100a6565b5090919050565b60008183106100bd57816100a6565b600080600080608085870312156100e957600080fd5b5050823594602084013594506040840135936060013592509050565b60008282101561012557634e487b7160e01b600052601160045260246000fd5b50039056fea264697066735822122006bd845e79ee2baeb2b2bf7d45b5cbe87e586cb81da04c76a8b7c561e6dc209364736f6c63430008070033",
  "linkReferences": {},
  "deployedLinkReferences": {}
}