{
  "_format": "hh-sol-artifact-1",
  "contractName": "ALCX_map",
  "sourceName": "contracts/ALCX_map.sol",
  "abi": [
    {
      "inputs": [],
      "stateMutability": "nonpayable",
      "type": "constructor"
    },
    {
      "anonymous": false,
      "inputs": [
        {
          "indexed": true,
          "internalType": "bytes32",
          "name": "role",
          "type": "bytes32"
        },
        {
          "indexed": true,
          "internalType": "bytes32",
          "name": "previousAdminRole",
          "type": "bytes32"
        },
        {
          "indexed": true,
          "internalType": "bytes32",
          "name": "newAdminRole",
          "type": "bytes32"
        }
      ],
      "name": "RoleAdminChanged",
      "type": "event"
    },
    {
      "anonymous": false,
      "inputs": [
        {
          "indexed": true,
          "internalType": "bytes32",
          "name": "role",
          "type": "bytes32"
        },
        {
          "indexed": true,
          "internalType": "address",
          "name": "account",
          "type": "address"
        },
        {
          "indexed": true,
          "internalType": "address",
          "name": "sender",
          "type": "address"
        }
      ],
      "name": "RoleGranted",
      "type": "event"
    },
    {
      "anonymous": false,
      "inputs": [
        {
          "indexed": true,
          "internalType": "bytes32",
          "name": "role",
          "type": "bytes32"
        },
        {
          "indexed": true,
          "internalType": "address",
          "name": "account",
          "type": "address"
        },
        {
          "indexed": true,
          "internalType": "address",
          "name": "sender",
          "type": "address"
        }
      ],
      "name": "RoleRevoked",
      "type": "event"
    },
    {
      "inputs": [],
      "name": "DAO_nft_Token",
      "outputs": [
        {
          "internalType": "address",
          "name": "",
          "type": "address"
        }
      ],
      "stateMutability": "view",
      "type": "function"
    },
    {
      "inputs": [
        {
          "internalType": "address",
          "name": "_to",
          "type": "address"
        }
      ],
      "name": "DAO_nft_TokenChange",
      "outputs": [],
      "stateMutability": "nonpayable",
      "type": "function"
    },
    {
      "inputs": [],
      "name": "DEFAULT_ADMIN_ROLE",
      "outputs": [
        {
          "internalType": "bytes32",
          "name": "",
          "type": "bytes32"
        }
      ],
      "stateMutability": "view",
      "type": "function"
    },
    {
      "inputs": [
        {
          "internalType": "uint256",
          "name": "",
          "type": "uint256"
        },
        {
          "internalType": "uint256",
          "name": "",
          "type": "uint256"
        }
      ],
      "name": "IDtoXY",
      "outputs": [
        {
          "internalType": "uint256",
          "name": "",
          "type": "uint256"
        }
      ],
      "stateMutability": "view",
      "type": "function"
    },
    {
      "inputs": [],
      "name": "MAP_CONTROL",
      "outputs": [
        {
          "internalType": "bytes32",
          "name": "",
          "type": "bytes32"
        }
      ],
      "stateMutability": "view",
      "type": "function"
    },
    {
      "inputs": [
        {
          "internalType": "address",
          "name": "_to",
          "type": "address"
        }
      ],
      "name": "adminChange",
      "outputs": [],
      "stateMutability": "nonpayable",
      "type": "function"
    },
    {
      "inputs": [
        {
          "internalType": "address",
          "name": "from",
          "type": "address"
        },
        {
          "internalType": "address",
          "name": "to",
          "type": "address"
        },
        {
          "internalType": "uint256[]",
          "name": "ids",
          "type": "uint256[]"
        },
        {
          "internalType": "uint256[]",
          "name": "amounts",
          "type": "uint256[]"
        },
        {
          "internalType": "bytes",
          "name": "_data",
          "type": "bytes"
        }
      ],
      "name": "batchedFromToDAONFT",
      "outputs": [],
      "stateMutability": "nonpayable",
      "type": "function"
    },
    {
      "inputs": [
        {
          "internalType": "uint256",
          "name": "_delay",
          "type": "uint256"
        }
      ],
      "name": "changeDelay",
      "outputs": [],
      "stateMutability": "nonpayable",
      "type": "function"
    },
    {
      "inputs": [],
      "name": "deadTiles",
      "outputs": [
        {
          "internalType": "uint256",
          "name": "",
          "type": "uint256"
        }
      ],
      "stateMutability": "view",
      "type": "function"
    },
    {
      "inputs": [
        {
          "internalType": "address",
          "name": "from",
          "type": "address"
        },
        {
          "internalType": "address",
          "name": "to",
          "type": "address"
        },
        {
          "internalType": "uint256",
          "name": "id",
          "type": "uint256"
        },
        {
          "internalType": "uint256",
          "name": "amount",
          "type": "uint256"
        },
        {
          "internalType": "bytes",
          "name": "_data",
          "type": "bytes"
        }
      ],
      "name": "fromToDAONFT",
      "outputs": [],
      "stateMutability": "nonpayable",
      "type": "function"
    },
    {
      "inputs": [
        {
          "internalType": "bytes32",
          "name": "role",
          "type": "bytes32"
        }
      ],
      "name": "getRoleAdmin",
      "outputs": [
        {
          "internalType": "bytes32",
          "name": "",
          "type": "bytes32"
        }
      ],
      "stateMutability": "view",
      "type": "function"
    },
    {
      "inputs": [
        {
          "internalType": "bytes32",
          "name": "role",
          "type": "bytes32"
        },
        {
          "internalType": "uint256",
          "name": "index",
          "type": "uint256"
        }
      ],
      "name": "getRoleMember",
      "outputs": [
        {
          "internalType": "address",
          "name": "",
          "type": "address"
        }
      ],
      "stateMutability": "view",
      "type": "function"
    },
    {
      "inputs": [
        {
          "internalType": "bytes32",
          "name": "role",
          "type": "bytes32"
        }
      ],
      "name": "getRoleMemberCount",
      "outputs": [
        {
          "internalType": "uint256",
          "name": "",
          "type": "uint256"
        }
      ],
      "stateMutability": "view",
      "type": "function"
    },
    {
      "inputs": [
        {
          "internalType": "bytes32",
          "name": "role",
          "type": "bytes32"
        },
        {
          "internalType": "address",
          "name": "account",
          "type": "address"
        }
      ],
      "name": "grantRole",
      "outputs": [],
      "stateMutability": "nonpayable",
      "type": "function"
    },
    {
      "inputs": [
        {
          "internalType": "bytes32",
          "name": "role",
          "type": "bytes32"
        },
        {
          "internalType": "address",
          "name": "account",
          "type": "address"
        }
      ],
      "name": "hasRole",
      "outputs": [
        {
          "internalType": "bool",
          "name": "",
          "type": "bool"
        }
      ],
      "stateMutability": "view",
      "type": "function"
    },
    {
      "inputs": [
        {
          "internalType": "uint256",
          "name": "_x",
          "type": "uint256"
        },
        {
          "internalType": "uint256",
          "name": "_y",
          "type": "uint256"
        }
      ],
      "name": "killTile",
      "outputs": [],
      "stateMutability": "nonpayable",
      "type": "function"
    },
    {
      "inputs": [
        {
          "internalType": "uint256",
          "name": "",
          "type": "uint256"
        },
        {
          "internalType": "uint256",
          "name": "",
          "type": "uint256"
        }
      ],
      "name": "map",
      "outputs": [
        {
          "internalType": "uint256",
          "name": "ALCX_DAO_NFT_ID",
          "type": "uint256"
        },
        {
          "internalType": "uint256",
          "name": "index",
          "type": "uint256"
        },
        {
          "internalType": "bool",
          "name": "dead",
          "type": "bool"
        },
        {
          "internalType": "uint256",
          "name": "NFTProtection",
          "type": "uint256"
        },
        {
          "internalType": "uint256",
          "name": "lastChange",
          "type": "uint256"
        }
      ],
      "stateMutability": "view",
      "type": "function"
    },
    {
      "inputs": [
        {
          "internalType": "uint256",
          "name": "_x",
          "type": "uint256"
        },
        {
          "internalType": "uint256",
          "name": "_y",
          "type": "uint256"
        }
      ],
      "name": "mapContExternal_ALCX_DAO_NFT_ID",
      "outputs": [
        {
          "internalType": "uint256",
          "name": "",
          "type": "uint256"
        }
      ],
      "stateMutability": "view",
      "type": "function"
    },
    {
      "inputs": [
        {
          "internalType": "uint256",
          "name": "_x",
          "type": "uint256"
        },
        {
          "internalType": "uint256",
          "name": "_y",
          "type": "uint256"
        },
        {
          "internalType": "bool",
          "name": "_add",
          "type": "bool"
        },
        {
          "internalType": "uint256",
          "name": "_amount",
          "type": "uint256"
        }
      ],
      "name": "mapContExternal_ALCX_DAO_NFT_ID_change",
      "outputs": [],
      "stateMutability": "nonpayable",
      "type": "function"
    },
    {
      "inputs": [
        {
          "internalType": "uint256",
          "name": "_x",
          "type": "uint256"
        },
        {
          "internalType": "uint256",
          "name": "_y",
          "type": "uint256"
        }
      ],
      "name": "mapContExternal_NFTProtection",
      "outputs": [
        {
          "internalType": "uint256",
          "name": "",
          "type": "uint256"
        }
      ],
      "stateMutability": "view",
      "type": "function"
    },
    {
      "inputs": [
        {
          "internalType": "uint256",
          "name": "_x",
          "type": "uint256"
        },
        {
          "internalType": "uint256",
          "name": "_y",
          "type": "uint256"
        },
        {
          "internalType": "bool",
          "name": "_add",
          "type": "bool"
        },
        {
          "internalType": "uint256",
          "name": "_amount",
          "type": "uint256"
        }
      ],
      "name": "mapContExternal_NFTProtection_change",
      "outputs": [],
      "stateMutability": "nonpayable",
      "type": "function"
    },
    {
      "inputs": [
        {
          "internalType": "uint256",
          "name": "_x",
          "type": "uint256"
        },
        {
          "internalType": "uint256",
          "name": "_y",
          "type": "uint256"
        }
      ],
      "name": "mapContExternal_dead",
      "outputs": [
        {
          "internalType": "bool",
          "name": "",
          "type": "bool"
        }
      ],
      "stateMutability": "view",
      "type": "function"
    },
    {
      "inputs": [
        {
          "internalType": "uint256",
          "name": "_x",
          "type": "uint256"
        },
        {
          "internalType": "uint256",
          "name": "_y",
          "type": "uint256"
        },
        {
          "internalType": "bool",
          "name": "_alive",
          "type": "bool"
        }
      ],
      "name": "mapContExternal_dead_change",
      "outputs": [],
      "stateMutability": "nonpayable",
      "type": "function"
    },
    {
      "inputs": [
        {
          "internalType": "uint256",
          "name": "_x",
          "type": "uint256"
        },
        {
          "internalType": "uint256",
          "name": "_y",
          "type": "uint256"
        }
      ],
      "name": "mapContExternal_index",
      "outputs": [
        {
          "internalType": "uint256",
          "name": "",
          "type": "uint256"
        }
      ],
      "stateMutability": "view",
      "type": "function"
    },
    {
      "inputs": [],
      "name": "mapNFTAddr",
      "outputs": [
        {
          "internalType": "address",
          "name": "",
          "type": "address"
        }
      ],
      "stateMutability": "view",
      "type": "function"
    },
    {
      "inputs": [],
      "name": "mapNFTs",
      "outputs": [
        {
          "internalType": "contract ERC721PresetMinterPauserAutoId",
          "name": "",
          "type": "address"
        }
      ],
      "stateMutability": "view",
      "type": "function"
    },
    {
      "inputs": [],
      "name": "mapNFTsAddr",
      "outputs": [
        {
          "internalType": "address",
          "name": "",
          "type": "address"
        }
      ],
      "stateMutability": "view",
      "type": "function"
    },
    {
      "inputs": [
        {
          "internalType": "uint256",
          "name": "_x1Removed",
          "type": "uint256"
        },
        {
          "internalType": "uint256",
          "name": "_y1Removed",
          "type": "uint256"
        },
        {
          "internalType": "uint256",
          "name": "_x2Start",
          "type": "uint256"
        },
        {
          "internalType": "uint256",
          "name": "_y2Start",
          "type": "uint256"
        }
      ],
      "name": "mapStaysWhole",
      "outputs": [
        {
          "internalType": "bool",
          "name": "",
          "type": "bool"
        }
      ],
      "stateMutability": "nonpayable",
      "type": "function"
    },
    {
      "inputs": [
        {
          "internalType": "bool",
          "name": "_add",
          "type": "bool"
        },
        {
          "internalType": "address",
          "name": "_to",
          "type": "address"
        }
      ],
      "name": "map_control_roll_control",
      "outputs": [],
      "stateMutability": "nonpayable",
      "type": "function"
    },
    {
      "inputs": [],
      "name": "nextX",
      "outputs": [
        {
          "internalType": "uint256",
          "name": "",
          "type": "uint256"
        }
      ],
      "stateMutability": "view",
      "type": "function"
    },
    {
      "inputs": [],
      "name": "nextY",
      "outputs": [
        {
          "internalType": "uint256",
          "name": "",
          "type": "uint256"
        }
      ],
      "stateMutability": "view",
      "type": "function"
    },
    {
      "inputs": [
        {
          "internalType": "address",
          "name": "",
          "type": "address"
        },
        {
          "internalType": "address",
          "name": "",
          "type": "address"
        },
        {
          "internalType": "uint256[]",
          "name": "",
          "type": "uint256[]"
        },
        {
          "internalType": "uint256[]",
          "name": "",
          "type": "uint256[]"
        },
        {
          "internalType": "bytes",
          "name": "",
          "type": "bytes"
        }
      ],
      "name": "onERC1155BatchReceived",
      "outputs": [
        {
          "internalType": "bytes4",
          "name": "",
          "type": "bytes4"
        }
      ],
      "stateMutability": "nonpayable",
      "type": "function"
    },
    {
      "inputs": [
        {
          "internalType": "address",
          "name": "",
          "type": "address"
        },
        {
          "internalType": "address",
          "name": "",
          "type": "address"
        },
        {
          "internalType": "uint256",
          "name": "",
          "type": "uint256"
        },
        {
          "internalType": "uint256",
          "name": "",
          "type": "uint256"
        },
        {
          "internalType": "bytes",
          "name": "",
          "type": "bytes"
        }
      ],
      "name": "onERC1155Received",
      "outputs": [
        {
          "internalType": "bytes4",
          "name": "",
          "type": "bytes4"
        }
      ],
      "stateMutability": "nonpayable",
      "type": "function"
    },
    {
      "inputs": [],
      "name": "radius",
      "outputs": [
        {
          "internalType": "uint256",
          "name": "",
          "type": "uint256"
        }
      ],
      "stateMutability": "view",
      "type": "function"
    },
    {
      "inputs": [
        {
          "internalType": "uint256[]",
          "name": "_ids",
          "type": "uint256[]"
        },
        {
          "internalType": "uint256[]",
          "name": "_amounts",
          "type": "uint256[]"
        }
      ],
      "name": "redeemNFTsForLand",
      "outputs": [],
      "stateMutability": "nonpayable",
      "type": "function"
    },
    {
      "inputs": [
        {
          "internalType": "bytes32",
          "name": "role",
          "type": "bytes32"
        },
        {
          "internalType": "address",
          "name": "account",
          "type": "address"
        }
      ],
      "name": "renounceRole",
      "outputs": [],
      "stateMutability": "nonpayable",
      "type": "function"
    },
    {
      "inputs": [
        {
          "internalType": "bytes32",
          "name": "role",
          "type": "bytes32"
        },
        {
          "internalType": "address",
          "name": "account",
          "type": "address"
        }
      ],
      "name": "revokeRole",
      "outputs": [],
      "stateMutability": "nonpayable",
      "type": "function"
    },
    {
      "inputs": [
        {
          "internalType": "bytes4",
          "name": "interfaceId",
          "type": "bytes4"
        }
      ],
      "name": "supportsInterface",
      "outputs": [
        {
          "internalType": "bool",
          "name": "",
          "type": "bool"
        }
      ],
      "stateMutability": "view",
      "type": "function"
    }
  ],
  "bytecode": "0x6080604052604051620000129062000500565b6060808252601190820152700416c6368656d69782044414f73206d617607c1b608082015260a060208201819052600790820152660414c43204d41560cc1b60c082015260e06040820181905260009082015261010001604051809103906000f08015801562000086573d6000803e3d6000fd5b50600280546001600160a01b03929092166001600160a01b031992831681179091556003805490921617905562015180600455600060078190556008556001600955348015620000d557600080fd5b50620000e433600019620000f7565b620000f16000336200039b565b620005ea565b6040518060a00160405280828152602001600260009054906101000a90046001600160a01b03166001600160a01b03166318160ddd6040518163ffffffff1660e01b815260040160206040518083038186803b1580156200015757600080fd5b505afa1580156200016c573d6000803e3d6000fd5b505050506040513d601f19601f8201168201806040525081019062000192919062000568565b81526000602082018190526040820152606001620001b4620151804262000582565b905260078054600090815260056020908152604080832060088054855290835281842086518155868401516001820155868301516002808301805460ff191692151592909217909155606088015160038301556080909701516004918201558251808401845295548652905485840152945481516318160ddd60e01b8152915194956006956001600160a01b03909216936318160ddd9380830193919290829003018186803b1580156200026757600080fd5b505afa1580156200027c573d6000803e3d6000fd5b505050506040513d601f19601f82011682018060405250810190620002a2919062000568565b81526020810191909152604001600020620002bf9160026200050e565b50600754620002f15760098054600781905560006008819055909190620002e683620005b6565b919050555062000336565b600160095462000302919062000582565b60085410156200031e5760088054906000620002e683620005b6565b6007805490600062000330836200059c565b91905055505b6002546040516335313c2160e11b81526001600160a01b03848116600483015290911690636a62784290602401600060405180830381600087803b1580156200037e57600080fd5b505af115801562000393573d6000803e3d6000fd5b505050505050565b620003b28282620003de60201b62000b5a1760201c565b6000828152600160209081526040909120620003d991839062000b64620003ee821b17901c565b505050565b620003ea82826200040e565b5050565b600062000405836001600160a01b038416620004ae565b90505b92915050565b6000828152602081815260408083206001600160a01b038516845290915290205460ff16620003ea576000828152602081815260408083206001600160a01b03851684529091529020805460ff191660011790556200046a3390565b6001600160a01b0316816001600160a01b0316837f2f8788117e7eff1d82e926ec794901d17c78024a50270940304540a733656f0d60405160405180910390a45050565b6000818152600183016020526040812054620004f75750815460018181018455600084815260208082209093018490558454848252828601909352604090209190915562000408565b50600062000408565b612a738062002a4683390190565b82600281019282156200053f579160200282015b828111156200053f57825182559160200191906001019062000522565b506200054d92915062000551565b5090565b5b808211156200054d576000815560010162000552565b6000602082840312156200057b57600080fd5b5051919050565b600082821015620005975762000597620005d4565b500390565b600081620005ae57620005ae620005d4565b506000190190565b6000600019821415620005cd57620005cd620005d4565b5060010190565b634e487b7160e01b600052601160045260246000fd5b61244c80620005fa6000396000f3fe608060405234801561001057600080fd5b50600436106102325760003560e01c806391d1485411610130578063bc1f1bd0116100b8578063e23814fc1161007c578063e23814fc146105a2578063e96a0d95146105d0578063f23a6e61146105e3578063fbf4b38b14610602578063fdc143771461061557600080fd5b8063bc1f1bd01461054f578063bef6002914610560578063ca15c87314610573578063cd1bc22d14610586578063d547741f1461058f57600080fd5b8063a90b9128116100ff578063a90b912814610461578063abccbfeb146104dc578063af89f216146104f1578063b7f0b7f014610504578063bc197c811461051757600080fd5b806391d14854146104205780639342c02d146104335780639e5f4dbd14610446578063a217fddf1461045957600080fd5b806336568abe116101be5780637fb5269e116101825780637fb5269e1461039857806384341e0a146103c357806384cff22f146103cc5780638729d913146103df5780639010d07c1461040d57600080fd5b806336568abe1461031b5780633976c8181461032e5780634d4190de1461035f5780635037ec621461037257806373f37a821461038557600080fd5b80631ba8da39116102055780631ba8da39146102b2578063217f4353146102c5578063248a9ca3146102dc5780632c70089a146102ff5780632f2ff15d1461030857600080fd5b806301ffc9a7146102375780630d9123371461025f5780630d996b061461028a57806316bc04b41461029f575b600080fd5b61024a610245366004612033565b610628565b60405190151581526020015b60405180910390f35b600354610272906001600160a01b031681565b6040516001600160a01b039091168152602001610256565b61029d610298366004611ed9565b610639565b005b61029d6102ad366004611e14565b61066e565b61029d6102c0366004611f3e565b6106c1565b6102ce60095481565b604051908152602001610256565b6102ce6102ea366004611fd5565b60009081526020819052604090206001015490565b6102ce600a5481565b61029d610316366004611fee565b6107b0565b61029d610329366004611fee565b6107d2565b61024a61033c366004612011565b600091825260056020908152604080842092845291905290206002015460ff1690565b6102ce61036d366004612011565b6107f4565b61029d610380366004611fd5565b610819565b61029d610393366004611e2f565b610832565b6102ce6103a6366004612011565b600091825260056020908152604080842092845291905290205490565b6102ce60075481565b600254610272906001600160a01b031681565b6102ce6103ed366004612011565b600091825260056020908152604080842092845291905290206001015490565b61027261041b366004612011565b610860565b61024a61042e366004611fee565b61087f565b61029d6104413660046120ab565b6108a8565b61029d610454366004611e14565b61095e565b6102ce600081565b6104ad61046f366004612011565b6005602090815260009283526040808420909152908252902080546001820154600283015460038401546004909401549293919260ff909116919085565b604051610256959493929190948552602085019390935290151560408401526060830152608082015260a00190565b6102ce6000805160206123f783398151915281565b61029d6104ff366004611fa2565b61099e565b600c54610272906001600160a01b031681565b610536610525366004611e2f565b63bc197c8160e01b95945050505050565b6040516001600160e01b03199091168152602001610256565b6002546001600160a01b0316610272565b61029d61056e3660046120ab565b6109ff565b6102ce610581366004611fd5565b610aa7565b6102ce60085481565b61029d61059d366004611fee565b610abe565b6102ce6105b0366004612011565b600091825260056020908152604080842092845291905290206003015490565b61029d6105de366004612011565b610ac8565b6105366105f1366004611ed9565b63f23a6e6160e01b95945050505050565b61029d610610366004612076565b610af3565b61024a6106233660046120e8565b610b41565b600061063382610b79565b92915050565b6106516000805160206123f78339815191523361087f565b61065a57600080fd5b6106678585858585610b9e565b5050505050565b61067960003361087f565b61068257600080fd5b6001600160a01b03811661069557600080fd5b600c80546001600160a01b039092166001600160a01b03199283168117909155600b8054909216179055565b60008251116107175760405162461bcd60e51b815260206004820152601860248201527f63616e74207061737320616e20656d707479206172726179000000000000000060448201526064015b60405180910390fd5b6107333330848460405180602001604052806000815250610c0f565b60005b82518110156107ab5760005b828281518110610754576107546123ca565b60200260200101518110156107985761078633858481518110610779576107796123ca565b6020026020010151610c47565b8061079081612363565b915050610742565b50806107a381612363565b915050610736565b505050565b6107ba8282610ed2565b60008281526001602052604090206107ab9082610b64565b6107dc8282610ef8565b60008281526001602052604090206107ab9082610f72565b6006602052816000526040600020816002811061081057600080fd5b01549150829050565b61082460003361087f565b61082d57600080fd5b600455565b61084a6000805160206123f78339815191523361087f565b61085357600080fd5b6106678585858585610c0f565b60008281526001602052604081206108789083610f87565b9392505050565b6000918252602082815260408084206001600160a01b0393909316845291905290205460ff1690565b6108c06000805160206123f78339815191523361087f565b6108c957600080fd5b8115610903576000848152600560209081526040808320868452909152812080548392906108f89084906122d2565b909155506109589050565b600084815260056020908152604080832086845290915290205481111561092957600080fd5b600084815260056020908152604080832086845290915281208054839290610952908490612309565b90915550505b50505050565b6001600160a01b03811661097157600080fd5b61097c60003361087f565b61098557600080fd5b6109906000826107b0565b61099b600033610abe565b50565b6109a960003361087f565b6109b257600080fd5b6001600160a01b0381166109c557600080fd5b81156109e7576109e36000805160206123f7833981519152826107b0565b5050565b6109e36000805160206123f783398151915282610abe565b610a176000805160206123f78339815191523361087f565b610a2057600080fd5b8115610a52576000848152600560209081526040808320868452909152812060030180548392906108f89084906122d2565b6000848152600560209081526040808320868452909152902060030154811115610a7b57600080fd5b600084815260056020908152604080832086845290915281206003018054839290610952908490612309565b600081815260016020526040812061063390610f93565b6107dc8282610f9d565b610ae06000805160206123f78339815191523361087f565b610ae957600080fd5b6109e38282610fc3565b610b0b6000805160206123f78339815191523361087f565b610b1457600080fd5b60009283526005602090815260408085209385529290529120600201805460ff1916911515919091179055565b6000610b4f85858585611001565b90505b949350505050565b6109e3828261171f565b6000610878836001600160a01b0384166117a3565b60006001600160e01b03198216635a05180f60e01b14806106335750610633826117f2565b600b54604051637921219560e11b81526001600160a01b039091169063f242432a90610bd69088908890889088908890600401612254565b600060405180830381600087803b158015610bf057600080fd5b505af1158015610c04573d6000803e3d6000fd5b505050505050505050565b600b54604051631759616b60e11b81526001600160a01b0390911690632eb2c2d690610bd690889088908890889088906004016121f6565b6040518060a00160405280828152602001600260009054906101000a90046001600160a01b03166001600160a01b03166318160ddd6040518163ffffffff1660e01b815260040160206040518083038186803b158015610ca657600080fd5b505afa158015610cba573d6000803e3d6000fd5b505050506040513d601f19601f82011682018060405250810190610cde919061205d565b81526000602082018190526040820152606001610cfe6201518042612309565b905260078054600090815260056020908152604080832060088054855290835281842086518155868401516001820155868301516002808301805460ff191692151592909217909155606088015160038301556080909701516004918201558251808401845295548652905485840152945481516318160ddd60e01b8152915194956006956001600160a01b03909216936318160ddd9380830193919290829003018186803b158015610db057600080fd5b505afa158015610dc4573d6000803e3d6000fd5b505050506040513d601f19601f82011682018060405250810190610de8919061205d565b81526020810191909152604001600020610e03916002611c35565b50600754610e315760098054600781905560006008819055909190610e2783612363565b9190505550610e6f565b6001600954610e409190612309565b6008541015610e595760088054906000610e2783612363565b60078054906000610e698361234c565b91905055505b6002546040516335313c2160e11b81526001600160a01b03848116600483015290911690636a62784290602401600060405180830381600087803b158015610eb657600080fd5b505af1158015610eca573d6000803e3d6000fd5b505050505050565b600082815260208190526040902060010154610eee8133611817565b6107ab838361171f565b6001600160a01b0381163314610f685760405162461bcd60e51b815260206004820152602f60248201527f416363657373436f6e74726f6c3a2063616e206f6e6c792072656e6f756e636560448201526e103937b632b9903337b91039b2b63360891b606482015260840161070e565b6109e3828261187b565b6000610878836001600160a01b0384166118e0565b600061087883836119d3565b6000610633825490565b600082815260208190526040902060010154610fb98133611817565b6107ab838361187b565b60008281526005602090815260408083208484529091528120600201805460ff19166001179055600a805491610ff883612363565b91905055505050565b600084815260056020908152604080832086845290915281206002015460ff1615801561104b5750600083815260056020908152604080832085845290915290206002015460ff16155b6110975760405162461bcd60e51b815260206004820152601960248201527f626f74682074696c6573206d75737420626520616c6969766500000000000000604482015260640161070e565b61109f611c73565b6020808201516001908201819052604080516101408101825260006101008201818152610120830182905282528251808401845284815280860182905282860152825180840184526002808252818701839052838501919091528351808501855281815280870186905260608401528351808501855281815280870182905260808401528351808501855285815280870182905260a0840152835180850185528281528087019190915260c083015282518084019093528083529382019290925260e0820152908061116f611ca0565b60005b60088160ff161015611336576000828260ff1660098110611195576111956123ca565b9115156020909202015260006111cf8c8760ff8516600881106111ba576111ba6123ca565b602002015160005b602002015160ff166119fd565b905060006111f88c888560ff16600881106111ec576111ec6123ca565b602002015160016111c2565b600083815260056020908152604080832084845290915290206002015490915060ff16611226575050611324565b600188888560ff166008811061123e5761123e6123ca565b60200201515160ff1660038110611257576112576123ca565b6020020151888560ff1660088110611271576112716123ca565b60200201516001602002015160ff1660038110611290576112906123ca565b9115156020909202015260018460ff8516600981106112b1576112b16123ca565b91151560209092020152846112c58161237e565b955050611318878460ff16600881106112e0576112e06123ca565b60200201515160ff908116908990861660088110611300576113006123ca565b60200201516001602002015160ff168f8f8f8f611a21565b15611321578295505b50505b8061132e8161237e565b915050611172565b5060068260ff16111561135157600195505050505050610b52565b8160ff166001141561136b57600195505050505050610b52565b60006040518061010001604052806040518060400160405280600160ff168152602001600860ff1681525081526020016040518060400160405280600260ff168152602001600360ff1681525081526020016040518060400160405280600360ff168152602001600860ff1681525081526020016040518060400160405280600460ff168152602001600560ff1681525081526020016040518060400160405280600560ff168152602001600860ff1681525081526020016040518060400160405280600660ff168152602001600760ff1681525081526020016040518060400160405280600760ff168152602001600860ff1681525081526020016040518060400160405280600060ff168152602001600160ff16815250815250905060006040518061010001604052806040518060400160405280600760ff168152602001600860ff1681525081526020016040518060400160405280600060ff168152602001600760ff1681525081526020016040518060400160405280600160ff168152602001600860ff1681525081526020016040518060400160405280600260ff168152602001600160ff1681525081526020016040518060400160405280600360ff168152602001600860ff1681525081526020016040518060400160405280600460ff168152602001600360ff1681525081526020016040518060400160405280600560ff168152602001600860ff1681525081526020016040518060400160405280600060ff168152602001600160ff16815250815250905082818660ff16600881106115bd576115bd6123ca565b60200201515160ff16600981106115d6576115d66123ca565b602002015115801561161f575082818660ff16600881106115f9576115f96123ca565b60200201516001602002015160ff1660098110611618576116186123ca565b6020020151155b15611628578091505b600185600080805b8860ff168160ff16101561170757868460ff1660088110611653576116536123ca565b60200201515192508660ff851660088110611670576116706123ca565b6020020151600160200201519150878360ff1660098110611693576116936123ca565b6020020151156116b35782935084806116ab9061237e565b9550506116f5565b878260ff16600981106116c8576116c86123ca565b6020020151156116e05781935084806116ab9061237e565b60009c50505050505050505050505050610b52565b806116ff8161237e565b915050611630565b5060019b505050505050505050505050949350505050565b611729828261087f565b6109e3576000828152602081815260408083206001600160a01b03851684529091529020805460ff1916600117905561175f3390565b6001600160a01b0316816001600160a01b0316837f2f8788117e7eff1d82e926ec794901d17c78024a50270940304540a733656f0d60405160405180910390a45050565b60008181526001830160205260408120546117ea57508154600181810184556000848152602080822090930184905584548482528286019093526040902091909155610633565b506000610633565b60006001600160e01b03198216637965db0b60e01b1480610633575061063382611a64565b611821828261087f565b6109e357611839816001600160a01b03166014611a99565b611844836020611a99565b604051602001611855929190612181565b60408051601f198184030181529082905262461bcd60e51b825261070e9160040161228e565b611885828261087f565b156109e3576000828152602081815260408083206001600160a01b0385168085529252808320805460ff1916905551339285917ff6391f5c32d9c69d2a47ea670b442974b53935d1edc7fd64eb21e047a839171b9190a45050565b600081815260018301602052604081205480156119c9576000611904600183612309565b855490915060009061191890600190612309565b905081811461197d576000866000018281548110611938576119386123ca565b906000526020600020015490508087600001848154811061195b5761195b6123ca565b6000918252602080832090910192909255918252600188019052604090208390555b855486908061198e5761198e6123b4565b600190038181906000526020600020016000905590558560010160008681526020019081526020016000206000905560019350505050610633565b6000915050610633565b60008260000182815481106119ea576119ea6123ca565b9060005260206000200154905092915050565b6000818310611a1557611a108284612309565b610878565b61087882610101612309565b600086611a2f600187612309565b611a399085612309565b148015611a59575085611a4d600186612309565b611a579084612309565b145b979650505050505050565b60006001600160e01b03198216630271189760e51b148061063357506301ffc9a760e01b6001600160e01b0319831614610633565b60606000611aa88360026122ea565b611ab39060026122d2565b67ffffffffffffffff811115611acb57611acb6123e0565b6040519080825280601f01601f191660200182016040528015611af5576020820181803683370190505b509050600360fc1b81600081518110611b1057611b106123ca565b60200101906001600160f81b031916908160001a905350600f60fb1b81600181518110611b3f57611b3f6123ca565b60200101906001600160f81b031916908160001a9053506000611b638460026122ea565b611b6e9060016122d2565b90505b6001811115611be6576f181899199a1a9b1b9c1cb0b131b232b360811b85600f1660108110611ba257611ba26123ca565b1a60f81b828281518110611bb857611bb86123ca565b60200101906001600160f81b031916908160001a90535060049490941c93611bdf8161234c565b9050611b71565b5083156108785760405162461bcd60e51b815260206004820181905260248201527f537472696e67733a20686578206c656e67746820696e73756666696369656e74604482015260640161070e565b8260028101928215611c63579160200282015b82811115611c63578251825591602001919060010190611c48565b50611c6f929150611cbf565b5090565b60405180606001604052806003905b611c8a611cd4565b815260200190600190039081611c825790505090565b6040518061012001604052806009906020820280368337509192915050565b5b80821115611c6f5760008155600101611cc0565b60405180606001604052806003906020820280368337509192915050565b80356001600160a01b0381168114611d0957600080fd5b919050565b600082601f830112611d1f57600080fd5b8135602067ffffffffffffffff821115611d3b57611d3b6123e0565b8160051b611d4a8282016122a1565b838152828101908684018388018501891015611d6557600080fd5b600093505b85841015611d88578035835260019390930192918401918401611d6a565b50979650505050505050565b80358015158114611d0957600080fd5b600082601f830112611db557600080fd5b813567ffffffffffffffff811115611dcf57611dcf6123e0565b611de2601f8201601f19166020016122a1565b818152846020838601011115611df757600080fd5b816020850160208301376000918101602001919091529392505050565b600060208284031215611e2657600080fd5b61087882611cf2565b600080600080600060a08688031215611e4757600080fd5b611e5086611cf2565b9450611e5e60208701611cf2565b9350604086013567ffffffffffffffff80821115611e7b57600080fd5b611e8789838a01611d0e565b94506060880135915080821115611e9d57600080fd5b611ea989838a01611d0e565b93506080880135915080821115611ebf57600080fd5b50611ecc88828901611da4565b9150509295509295909350565b600080600080600060a08688031215611ef157600080fd5b611efa86611cf2565b9450611f0860208701611cf2565b93506040860135925060608601359150608086013567ffffffffffffffff811115611f3257600080fd5b611ecc88828901611da4565b60008060408385031215611f5157600080fd5b823567ffffffffffffffff80821115611f6957600080fd5b611f7586838701611d0e565b93506020850135915080821115611f8b57600080fd5b50611f9885828601611d0e565b9150509250929050565b60008060408385031215611fb557600080fd5b611fbe83611d94565b9150611fcc60208401611cf2565b90509250929050565b600060208284031215611fe757600080fd5b5035919050565b6000806040838503121561200157600080fd5b82359150611fcc60208401611cf2565b6000806040838503121561202457600080fd5b50508035926020909101359150565b60006020828403121561204557600080fd5b81356001600160e01b03198116811461087857600080fd5b60006020828403121561206f57600080fd5b5051919050565b60008060006060848603121561208b57600080fd5b83359250602084013591506120a260408501611d94565b90509250925092565b600080600080608085870312156120c157600080fd5b84359350602085013592506120d860408601611d94565b9396929550929360600135925050565b600080600080608085870312156120fe57600080fd5b5050823594602084013594506040840135936060013592509050565b600081518084526020808501945080840160005b8381101561214a5781518752958201959082019060010161212e565b509495945050505050565b6000815180845261216d816020860160208601612320565b601f01601f19169290920160200192915050565b7f416363657373436f6e74726f6c3a206163636f756e74200000000000000000008152600083516121b9816017850160208801612320565b7001034b99036b4b9b9b4b733903937b6329607d1b60179184019182015283516121ea816028840160208801612320565b01602801949350505050565b6001600160a01b0386811682528516602082015260a0604082018190526000906122229083018661211a565b8281036060840152612234818661211a565b905082810360808401526122488185612155565b98975050505050505050565b6001600160a01b03868116825285166020820152604081018490526060810183905260a060808201819052600090611a5990830184612155565b6020815260006108786020830184612155565b604051601f8201601f1916810167ffffffffffffffff811182821017156122ca576122ca6123e0565b604052919050565b600082198211156122e5576122e561239e565b500190565b60008160001904831182151516156123045761230461239e565b500290565b60008282101561231b5761231b61239e565b500390565b60005b8381101561233b578181015183820152602001612323565b838111156109585750506000910152565b60008161235b5761235b61239e565b506000190190565b60006000198214156123775761237761239e565b5060010190565b600060ff821660ff8114156123955761239561239e565b60010192915050565b634e487b7160e01b600052601160045260246000fd5b634e487b7160e01b600052603160045260246000fd5b634e487b7160e01b600052603260045260246000fd5b634e487b7160e01b600052604160045260246000fdfedcd5ff42f7f1c46d8c62c11aa980344ebf617172a26633fdbefd0a39548823b5a26469706673582212207974b538d9941df07ee50c6535a7efc3e1e9cac5471d78b691a816dd09fd4ea164736f6c6343000807003360806040523480156200001157600080fd5b5060405162002a7338038062002a738339810160408190526200003491620003b6565b8251839083906200004d90600290602085019062000259565b5080516200006390600390602084019062000259565b5050600c805460ff191690555080516200008590600e90602084019062000259565b5062000093600033620000f4565b620000bf7f9f2df0fed2c77648de5860a4cc508cd0818c85b8b8a1ab4ceeef8d981c8956a633620000f4565b620000eb7f65d7a28e3265b37a6474929f336521b332c1681b933f6cb9f3376673440d862a33620000f4565b5050506200049a565b6200010b82826200013760201b62000e701760201c565b60008281526001602090815260409091206200013291839062000e7e62000147821b17901c565b505050565b62000143828262000167565b5050565b60006200015e836001600160a01b03841662000207565b90505b92915050565b6000828152602081815260408083206001600160a01b038516845290915290205460ff1662000143576000828152602081815260408083206001600160a01b03851684529091529020805460ff19166001179055620001c33390565b6001600160a01b0316816001600160a01b0316837f2f8788117e7eff1d82e926ec794901d17c78024a50270940304540a733656f0d60405160405180910390a45050565b6000818152600183016020526040812054620002505750815460018181018455600084815260208082209093018490558454848252828601909352604090209190915562000161565b50600062000161565b828054620002679062000447565b90600052602060002090601f0160209004810192826200028b5760008555620002d6565b82601f10620002a657805160ff1916838001178555620002d6565b82800160010185558215620002d6579182015b82811115620002d6578251825591602001919060010190620002b9565b50620002e4929150620002e8565b5090565b5b80821115620002e45760008155600101620002e9565b600082601f8301126200031157600080fd5b81516001600160401b03808211156200032e576200032e62000484565b604051601f8301601f19908116603f0116810190828211818310171562000359576200035962000484565b816040528381526020925086838588010111156200037657600080fd5b600091505b838210156200039a57858201830151818301840152908201906200037b565b83821115620003ac5760008385830101525b9695505050505050565b600080600060608486031215620003cc57600080fd5b83516001600160401b0380821115620003e457600080fd5b620003f287838801620002ff565b945060208601519150808211156200040957600080fd5b6200041787838801620002ff565b935060408601519150808211156200042e57600080fd5b506200043d86828701620002ff565b9150509250925092565b600181811c908216806200045c57607f821691505b602082108114156200047e57634e487b7160e01b600052602260045260246000fd5b50919050565b634e487b7160e01b600052604160045260246000fd5b6125c980620004aa6000396000f3fe608060405234801561001057600080fd5b50600436106101e55760003560e01c80636352211e1161010f578063a22cb465116100a2578063d539139311610071578063d5391393146103f7578063d547741f1461041e578063e63ab1e914610431578063e985e9c51461045857600080fd5b8063a22cb465146103ab578063b88d4fde146103be578063c87b56dd146103d1578063ca15c873146103e457600080fd5b80639010d07c116100de5780639010d07c1461037557806391d148541461038857806395d89b411461039b578063a217fddf146103a357600080fd5b80636352211e146103345780636a6278421461034757806370a082311461035a5780638456cb591461036d57600080fd5b80632f2ff15d1161018757806342842e0e1161015657806342842e0e146102f057806342966c68146103035780634f6ccce7146103165780635c975abb1461032957600080fd5b80632f2ff15d146102af5780632f745c59146102c257806336568abe146102d55780633f4ba83a146102e857600080fd5b8063095ea7b3116101c3578063095ea7b31461025257806318160ddd1461026757806323b872dd14610279578063248a9ca31461028c57600080fd5b806301ffc9a7146101ea57806306fdde0314610212578063081812fc14610227575b600080fd5b6101fd6101f8366004612203565b610494565b60405190151581526020015b60405180910390f35b61021a6104a5565b604051610209919061234a565b61023a6102353660046121a5565b610537565b6040516001600160a01b039091168152602001610209565b61026561026036600461217b565b6105d1565b005b600a545b604051908152602001610209565b610265610287366004612027565b6106e7565b61026b61029a3660046121a5565b60009081526020819052604090206001015490565b6102656102bd3660046121be565b610719565b61026b6102d036600461217b565b61073b565b6102656102e33660046121be565b6107d1565b6102656107f3565b6102656102fe366004612027565b61089b565b6102656103113660046121a5565b6108b6565b61026b6103243660046121a5565b610930565b600c5460ff166101fd565b61023a6103423660046121a5565b6109c3565b610265610355366004611fd9565b610a3a565b61026b610368366004611fd9565b610af6565b610265610b7d565b61023a6103833660046121e1565b610c21565b6101fd6103963660046121be565b610c40565b61021a610c69565b61026b600081565b6102656103b936600461213f565b610c78565b6102656103cc366004612063565b610d3d565b61021a6103df3660046121a5565b610d75565b61026b6103f23660046121a5565b610e4f565b61026b7f9f2df0fed2c77648de5860a4cc508cd0818c85b8b8a1ab4ceeef8d981c8956a681565b61026561042c3660046121be565b610e66565b61026b7f65d7a28e3265b37a6474929f336521b332c1681b933f6cb9f3376673440d862a81565b6101fd610466366004611ff4565b6001600160a01b03918216600090815260076020908152604080832093909416825291909152205460ff1690565b600061049f82610e93565b92915050565b6060600280546104b4906124a5565b80601f01602080910402602001604051908101604052809291908181526020018280546104e0906124a5565b801561052d5780601f106105025761010080835404028352916020019161052d565b820191906000526020600020905b81548152906001019060200180831161051057829003601f168201915b5050505050905090565b6000818152600460205260408120546001600160a01b03166105b55760405162461bcd60e51b815260206004820152602c60248201527f4552433732313a20617070726f76656420717565727920666f72206e6f6e657860448201526b34b9ba32b73a103a37b5b2b760a11b60648201526084015b60405180910390fd5b506000908152600660205260409020546001600160a01b031690565b60006105dc826109c3565b9050806001600160a01b0316836001600160a01b0316141561064a5760405162461bcd60e51b815260206004820152602160248201527f4552433732313a20617070726f76616c20746f2063757272656e74206f776e656044820152603960f91b60648201526084016105ac565b336001600160a01b038216148061066657506106668133610466565b6106d85760405162461bcd60e51b815260206004820152603860248201527f4552433732313a20617070726f76652063616c6c6572206973206e6f74206f7760448201527f6e6572206e6f7220617070726f76656420666f7220616c6c000000000000000060648201526084016105ac565b6106e28383610eb8565b505050565b6106f2335b82610f26565b61070e5760405162461bcd60e51b81526004016105ac906123af565b6106e283838361101d565b61072382826111c8565b60008281526001602052604090206106e29082610e7e565b600061074683610af6565b82106107a85760405162461bcd60e51b815260206004820152602b60248201527f455243373231456e756d657261626c653a206f776e657220696e646578206f7560448201526a74206f6620626f756e647360a81b60648201526084016105ac565b506001600160a01b03919091166000908152600860209081526040808320938352929052205490565b6107db82826111ee565b60008281526001602052604090206106e29082611268565b61081d7f65d7a28e3265b37a6474929f336521b332c1681b933f6cb9f3376673440d862a33610c40565b610891576040805162461bcd60e51b81526020600482015260248101919091527f4552433732315072657365744d696e7465725061757365724175746f49643a2060448201527f6d75737420686176652070617573657220726f6c6520746f20756e706175736560648201526084016105ac565b61089961127d565b565b6106e283838360405180602001604052806000815250610d3d565b6108bf336106ec565b6109245760405162461bcd60e51b815260206004820152603060248201527f4552433732314275726e61626c653a2063616c6c6572206973206e6f74206f7760448201526f1b995c881b9bdc88185c1c1c9bdd995960821b60648201526084016105ac565b61092d81611310565b50565b600061093b600a5490565b821061099e5760405162461bcd60e51b815260206004820152602c60248201527f455243373231456e756d657261626c653a20676c6f62616c20696e646578206f60448201526b7574206f6620626f756e647360a01b60648201526084016105ac565b600a82815481106109b1576109b1612551565b90600052602060002001549050919050565b6000818152600460205260408120546001600160a01b03168061049f5760405162461bcd60e51b815260206004820152602960248201527f4552433732313a206f776e657220717565727920666f72206e6f6e657869737460448201526832b73a103a37b5b2b760b91b60648201526084016105ac565b610a647f9f2df0fed2c77648de5860a4cc508cd0818c85b8b8a1ab4ceeef8d981c8956a633610c40565b610ad65760405162461bcd60e51b815260206004820152603d60248201527f4552433732315072657365744d696e7465725061757365724175746f49643a2060448201527f6d7573742068617665206d696e74657220726f6c6520746f206d696e7400000060648201526084016105ac565b610ae881610ae3600d5490565b6113b7565b61092d600d80546001019055565b60006001600160a01b038216610b615760405162461bcd60e51b815260206004820152602a60248201527f4552433732313a2062616c616e636520717565727920666f7220746865207a65604482015269726f206164647265737360b01b60648201526084016105ac565b506001600160a01b031660009081526005602052604090205490565b610ba77f65d7a28e3265b37a6474929f336521b332c1681b933f6cb9f3376673440d862a33610c40565b610c195760405162461bcd60e51b815260206004820152603e60248201527f4552433732315072657365744d696e7465725061757365724175746f49643a2060448201527f6d75737420686176652070617573657220726f6c6520746f207061757365000060648201526084016105ac565b610899611505565b6000828152600160205260408120610c399083611580565b9392505050565b6000918252602082815260408084206001600160a01b0393909316845291905290205460ff1690565b6060600380546104b4906124a5565b6001600160a01b038216331415610cd15760405162461bcd60e51b815260206004820152601960248201527f4552433732313a20617070726f766520746f2063616c6c65720000000000000060448201526064016105ac565b3360008181526007602090815260408083206001600160a01b03871680855290835292819020805460ff191686151590811790915590519081529192917f17307eab39ab6107e8899845ad3d59bd9653f200f220920489ca2b5937696c31910160405180910390a35050565b610d473383610f26565b610d635760405162461bcd60e51b81526004016105ac906123af565b610d6f8484848461158c565b50505050565b6000818152600460205260409020546060906001600160a01b0316610df45760405162461bcd60e51b815260206004820152602f60248201527f4552433732314d657461646174613a2055524920717565727920666f72206e6f60448201526e3732bc34b9ba32b73a103a37b5b2b760891b60648201526084016105ac565b6000610dfe6115bf565b90506000815111610e1e5760405180602001604052806000815250610c39565b80610e28846115ce565b604051602001610e39929190612269565b6040516020818303038152906040529392505050565b600081815260016020526040812061049f906116cc565b6107db82826116d6565b610e7a82826116fc565b5050565b6000610c39836001600160a01b038416611780565b60006001600160e01b0319821663780e9d6360e01b148061049f575061049f826117cf565b600081815260066020526040902080546001600160a01b0319166001600160a01b0384169081179091558190610eed826109c3565b6001600160a01b03167f8c5be1e5ebec7d5bd14f71427d1e84f3dd0314c0f7b2291e5b200ac8c7c3b92560405160405180910390a45050565b6000818152600460205260408120546001600160a01b0316610f9f5760405162461bcd60e51b815260206004820152602c60248201527f4552433732313a206f70657261746f7220717565727920666f72206e6f6e657860448201526b34b9ba32b73a103a37b5b2b760a11b60648201526084016105ac565b6000610faa836109c3565b9050806001600160a01b0316846001600160a01b03161480610fe55750836001600160a01b0316610fda84610537565b6001600160a01b0316145b8061101557506001600160a01b0380821660009081526007602090815260408083209388168352929052205460ff165b949350505050565b826001600160a01b0316611030826109c3565b6001600160a01b0316146110985760405162461bcd60e51b815260206004820152602960248201527f4552433732313a207472616e73666572206f6620746f6b656e2074686174206960448201526839903737ba1037bbb760b91b60648201526084016105ac565b6001600160a01b0382166110fa5760405162461bcd60e51b8152602060048201526024808201527f4552433732313a207472616e7366657220746f20746865207a65726f206164646044820152637265737360e01b60648201526084016105ac565b61110583838361180f565b611110600082610eb8565b6001600160a01b038316600090815260056020526040812080546001929061113990849061244b565b90915550506001600160a01b0382166000908152600560205260408120805460019290611167908490612400565b909155505060008181526004602052604080822080546001600160a01b0319166001600160a01b0386811691821790925591518493918716917fddf252ad1be2c89b69c2b068fc378daa952ba7f163c4a11628f55a4df523b3ef91a4505050565b6000828152602081905260409020600101546111e4813361181a565b6106e283836116fc565b6001600160a01b038116331461125e5760405162461bcd60e51b815260206004820152602f60248201527f416363657373436f6e74726f6c3a2063616e206f6e6c792072656e6f756e636560448201526e103937b632b9903337b91039b2b63360891b60648201526084016105ac565b610e7a828261187e565b6000610c39836001600160a01b0384166118e3565b600c5460ff166112c65760405162461bcd60e51b815260206004820152601460248201527314185d5cd8589b194e881b9bdd081c185d5cd95960621b60448201526064016105ac565b600c805460ff191690557f5db9ee0a495bf2e6ff9c91a7834c1ba4fdd244a5e8aa4e537bd38aeae4b073aa335b6040516001600160a01b03909116815260200160405180910390a1565b600061131b826109c3565b90506113298160008461180f565b611334600083610eb8565b6001600160a01b038116600090815260056020526040812080546001929061135d90849061244b565b909155505060008281526004602052604080822080546001600160a01b0319169055518391906001600160a01b038416907fddf252ad1be2c89b69c2b068fc378daa952ba7f163c4a11628f55a4df523b3ef908390a45050565b6001600160a01b03821661140d5760405162461bcd60e51b815260206004820181905260248201527f4552433732313a206d696e7420746f20746865207a65726f206164647265737360448201526064016105ac565b6000818152600460205260409020546001600160a01b0316156114725760405162461bcd60e51b815260206004820152601c60248201527f4552433732313a20746f6b656e20616c7265616479206d696e7465640000000060448201526064016105ac565b61147e6000838361180f565b6001600160a01b03821660009081526005602052604081208054600192906114a7908490612400565b909155505060008181526004602052604080822080546001600160a01b0319166001600160a01b03861690811790915590518392907fddf252ad1be2c89b69c2b068fc378daa952ba7f163c4a11628f55a4df523b3ef908290a45050565b600c5460ff161561154b5760405162461bcd60e51b815260206004820152601060248201526f14185d5cd8589b194e881c185d5cd95960821b60448201526064016105ac565b600c805460ff191660011790557f62e78cea01bee320cd4e420270b5ea74000d11b0c9f74754ebdbfc544b05a2586112f33390565b6000610c3983836119d6565b61159784848461101d565b6115a384848484611a00565b610d6f5760405162461bcd60e51b81526004016105ac9061235d565b6060600e80546104b4906124a5565b6060816115f25750506040805180820190915260018152600360fc1b602082015290565b8160005b811561161c5780611606816124e0565b91506116159050600a83612418565b91506115f6565b60008167ffffffffffffffff81111561163757611637612567565b6040519080825280601f01601f191660200182016040528015611661576020820181803683370190505b5090505b84156110155761167660018361244b565b9150611683600a866124fb565b61168e906030612400565b60f81b8183815181106116a3576116a3612551565b60200101906001600160f81b031916908160001a9053506116c5600a86612418565b9450611665565b600061049f825490565b6000828152602081905260409020600101546116f2813361181a565b6106e2838361187e565b6117068282610c40565b610e7a576000828152602081815260408083206001600160a01b03851684529091529020805460ff1916600117905561173c3390565b6001600160a01b0316816001600160a01b0316837f2f8788117e7eff1d82e926ec794901d17c78024a50270940304540a733656f0d60405160405180910390a45050565b60008181526001830160205260408120546117c75750815460018181018455600084815260208082209093018490558454848252828601909352604090209190915561049f565b50600061049f565b60006001600160e01b031982166380ac58cd60e01b148061180057506001600160e01b03198216635b5e139f60e01b145b8061049f575061049f82611b0d565b6106e2838383611b32565b6118248282610c40565b610e7a5761183c816001600160a01b03166014611ba4565b611847836020611ba4565b604051602001611858929190612298565b60408051601f198184030181529082905262461bcd60e51b82526105ac9160040161234a565b6118888282610c40565b15610e7a576000828152602081815260408083206001600160a01b0385168085529252808320805460ff1916905551339285917ff6391f5c32d9c69d2a47ea670b442974b53935d1edc7fd64eb21e047a839171b9190a45050565b600081815260018301602052604081205480156119cc57600061190760018361244b565b855490915060009061191b9060019061244b565b905081811461198057600086600001828154811061193b5761193b612551565b906000526020600020015490508087600001848154811061195e5761195e612551565b6000918252602080832090910192909255918252600188019052604090208390555b85548690806119915761199161253b565b60019003818190600052602060002001600090559055856001016000868152602001908152602001600020600090556001935050505061049f565b600091505061049f565b60008260000182815481106119ed576119ed612551565b9060005260206000200154905092915050565b60006001600160a01b0384163b15611b0257604051630a85bd0160e11b81526001600160a01b0385169063150b7a0290611a4490339089908890889060040161230d565b602060405180830381600087803b158015611a5e57600080fd5b505af1925050508015611a8e575060408051601f3d908101601f19168201909252611a8b91810190612220565b60015b611ae8573d808015611abc576040519150601f19603f3d011682016040523d82523d6000602084013e611ac1565b606091505b508051611ae05760405162461bcd60e51b81526004016105ac9061235d565b805181602001fd5b6001600160e01b031916630a85bd0160e11b149050611015565b506001949350505050565b60006001600160e01b03198216635a05180f60e01b148061049f575061049f82611d40565b611b3d838383611d75565b600c5460ff16156106e25760405162461bcd60e51b815260206004820152602b60248201527f4552433732315061757361626c653a20746f6b656e207472616e73666572207760448201526a1a1a5b19481c185d5cd95960aa1b60648201526084016105ac565b60606000611bb383600261242c565b611bbe906002612400565b67ffffffffffffffff811115611bd657611bd6612567565b6040519080825280601f01601f191660200182016040528015611c00576020820181803683370190505b509050600360fc1b81600081518110611c1b57611c1b612551565b60200101906001600160f81b031916908160001a905350600f60fb1b81600181518110611c4a57611c4a612551565b60200101906001600160f81b031916908160001a9053506000611c6e84600261242c565b611c79906001612400565b90505b6001811115611cf1576f181899199a1a9b1b9c1cb0b131b232b360811b85600f1660108110611cad57611cad612551565b1a60f81b828281518110611cc357611cc3612551565b60200101906001600160f81b031916908160001a90535060049490941c93611cea8161248e565b9050611c7c565b508315610c395760405162461bcd60e51b815260206004820181905260248201527f537472696e67733a20686578206c656e67746820696e73756666696369656e7460448201526064016105ac565b60006001600160e01b03198216637965db0b60e01b148061049f57506301ffc9a760e01b6001600160e01b031983161461049f565b6001600160a01b038316611dd057611dcb81600a80546000838152600b60205260408120829055600182018355919091527fc65a7bb8d6351c1cf70c95a316cc6a92839c986682d98bc35f958f4883f9d2a80155565b611df3565b816001600160a01b0316836001600160a01b031614611df357611df38382611e2d565b6001600160a01b038216611e0a576106e281611eca565b826001600160a01b0316826001600160a01b0316146106e2576106e28282611f79565b60006001611e3a84610af6565b611e44919061244b565b600083815260096020526040902054909150808214611e97576001600160a01b03841660009081526008602090815260408083208584528252808320548484528184208190558352600990915290208190555b5060009182526009602090815260408084208490556001600160a01b039094168352600881528383209183525290812055565b600a54600090611edc9060019061244b565b6000838152600b6020526040812054600a8054939450909284908110611f0457611f04612551565b9060005260206000200154905080600a8381548110611f2557611f25612551565b6000918252602080832090910192909255828152600b9091526040808220849055858252812055600a805480611f5d57611f5d61253b565b6001900381819060005260206000200160009055905550505050565b6000611f8483610af6565b6001600160a01b039093166000908152600860209081526040808320868452825280832085905593825260099052919091209190915550565b80356001600160a01b0381168114611fd457600080fd5b919050565b600060208284031215611feb57600080fd5b610c3982611fbd565b6000806040838503121561200757600080fd5b61201083611fbd565b915061201e60208401611fbd565b90509250929050565b60008060006060848603121561203c57600080fd5b61204584611fbd565b925061205360208501611fbd565b9150604084013590509250925092565b6000806000806080858703121561207957600080fd5b61208285611fbd565b935061209060208601611fbd565b925060408501359150606085013567ffffffffffffffff808211156120b457600080fd5b818701915087601f8301126120c857600080fd5b8135818111156120da576120da612567565b604051601f8201601f19908116603f0116810190838211818310171561210257612102612567565b816040528281528a602084870101111561211b57600080fd5b82602086016020830137600060208483010152809550505050505092959194509250565b6000806040838503121561215257600080fd5b61215b83611fbd565b91506020830135801515811461217057600080fd5b809150509250929050565b6000806040838503121561218e57600080fd5b61219783611fbd565b946020939093013593505050565b6000602082840312156121b757600080fd5b5035919050565b600080604083850312156121d157600080fd5b8235915061201e60208401611fbd565b600080604083850312156121f457600080fd5b50508035926020909101359150565b60006020828403121561221557600080fd5b8135610c398161257d565b60006020828403121561223257600080fd5b8151610c398161257d565b60008151808452612255816020860160208601612462565b601f01601f19169290920160200192915050565b6000835161227b818460208801612462565b83519083019061228f818360208801612462565b01949350505050565b7f416363657373436f6e74726f6c3a206163636f756e74200000000000000000008152600083516122d0816017850160208801612462565b7001034b99036b4b9b9b4b733903937b6329607d1b6017918401918201528351612301816028840160208801612462565b01602801949350505050565b6001600160a01b03858116825284166020820152604081018390526080606082018190526000906123409083018461223d565b9695505050505050565b602081526000610c39602083018461223d565b60208082526032908201527f4552433732313a207472616e7366657220746f206e6f6e20455243373231526560408201527131b2b4bb32b91034b6b83632b6b2b73a32b960711b606082015260800190565b60208082526031908201527f4552433732313a207472616e736665722063616c6c6572206973206e6f74206f6040820152701ddb995c881b9bdc88185c1c1c9bdd9959607a1b606082015260800190565b600082198211156124135761241361250f565b500190565b60008261242757612427612525565b500490565b60008160001904831182151516156124465761244661250f565b500290565b60008282101561245d5761245d61250f565b500390565b60005b8381101561247d578181015183820152602001612465565b83811115610d6f5750506000910152565b60008161249d5761249d61250f565b506000190190565b600181811c908216806124b957607f821691505b602082108114156124da57634e487b7160e01b600052602260045260246000fd5b50919050565b60006000198214156124f4576124f461250f565b5060010190565b60008261250a5761250a612525565b500690565b634e487b7160e01b600052601160045260246000fd5b634e487b7160e01b600052601260045260246000fd5b634e487b7160e01b600052603160045260246000fd5b634e487b7160e01b600052603260045260246000fd5b634e487b7160e01b600052604160045260246000fd5b6001600160e01b03198116811461092d57600080fdfea2646970667358221220221e66d649d031557dd49f8884c31cb74a86dc08fe246e962d1cfaca8105651964736f6c63430008070033",
  "linkReferences": {},
  "deployedLinkReferences": {}
}